{
  "_format": "hh-sol-artifact-1",
  "contractName": "MythicNFTMarketplace",
  "sourceName": "contracts/MythicNFTMarketplace.sol",
  "abi": [
    {
      "inputs": [],
      "stateMutability": "nonpayable",
      "type": "constructor"
    },
    {
      "inputs": [
        {
          "internalType": "address",
          "name": "sender",
          "type": "address"
        },
        {
          "internalType": "uint256",
          "name": "tokenId",
          "type": "uint256"
        },
        {
          "internalType": "address",
          "name": "owner",
          "type": "address"
        }
      ],
      "name": "ERC721IncorrectOwner",
      "type": "error"
    },
    {
      "inputs": [
        {
          "internalType": "address",
          "name": "operator",
          "type": "address"
        },
        {
          "internalType": "uint256",
          "name": "tokenId",
          "type": "uint256"
        }
      ],
      "name": "ERC721InsufficientApproval",
      "type": "error"
    },
    {
      "inputs": [
        {
          "internalType": "address",
          "name": "approver",
          "type": "address"
        }
      ],
      "name": "ERC721InvalidApprover",
      "type": "error"
    },
    {
      "inputs": [
        {
          "internalType": "address",
          "name": "operator",
          "type": "address"
        }
      ],
      "name": "ERC721InvalidOperator",
      "type": "error"
    },
    {
      "inputs": [
        {
          "internalType": "address",
          "name": "owner",
          "type": "address"
        }
      ],
      "name": "ERC721InvalidOwner",
      "type": "error"
    },
    {
      "inputs": [
        {
          "internalType": "address",
          "name": "receiver",
          "type": "address"
        }
      ],
      "name": "ERC721InvalidReceiver",
      "type": "error"
    },
    {
      "inputs": [
        {
          "internalType": "address",
          "name": "sender",
          "type": "address"
        }
      ],
      "name": "ERC721InvalidSender",
      "type": "error"
    },
    {
      "inputs": [
        {
          "internalType": "uint256",
          "name": "tokenId",
          "type": "uint256"
        }
      ],
      "name": "ERC721NonexistentToken",
      "type": "error"
    },
    {
      "inputs": [
        {
          "internalType": "address",
          "name": "owner",
          "type": "address"
        }
      ],
      "name": "OwnableInvalidOwner",
      "type": "error"
    },
    {
      "inputs": [
        {
          "internalType": "address",
          "name": "account",
          "type": "address"
        }
      ],
      "name": "OwnableUnauthorizedAccount",
      "type": "error"
    },
    {
      "inputs": [],
      "name": "ReentrancyGuardReentrantCall",
      "type": "error"
    },
    {
      "anonymous": false,
      "inputs": [
        {
          "indexed": true,
          "internalType": "address",
          "name": "owner",
          "type": "address"
        },
        {
          "indexed": true,
          "internalType": "address",
          "name": "approved",
          "type": "address"
        },
        {
          "indexed": true,
          "internalType": "uint256",
          "name": "tokenId",
          "type": "uint256"
        }
      ],
      "name": "Approval",
      "type": "event"
    },
    {
      "anonymous": false,
      "inputs": [
        {
          "indexed": true,
          "internalType": "address",
          "name": "owner",
          "type": "address"
        },
        {
          "indexed": true,
          "internalType": "address",
          "name": "operator",
          "type": "address"
        },
        {
          "indexed": false,
          "internalType": "bool",
          "name": "approved",
          "type": "bool"
        }
      ],
      "name": "ApprovalForAll",
      "type": "event"
    },
    {
      "anonymous": false,
      "inputs": [
        {
          "indexed": false,
          "internalType": "uint256",
          "name": "tokenId",
          "type": "uint256"
        },
        {
          "indexed": false,
          "internalType": "uint256",
          "name": "endTime",
          "type": "uint256"
        }
      ],
      "name": "AuctionCreated",
      "type": "event"
    },
    {
      "anonymous": false,
      "inputs": [
        {
          "indexed": false,
          "internalType": "uint256",
          "name": "tokenId",
          "type": "uint256"
        },
        {
          "indexed": false,
          "internalType": "address",
          "name": "winner",
          "type": "address"
        }
      ],
      "name": "AuctionEnded",
      "type": "event"
    },
    {
      "anonymous": false,
      "inputs": [
        {
          "indexed": false,
          "internalType": "uint256",
          "name": "_fromTokenId",
          "type": "uint256"
        },
        {
          "indexed": false,
          "internalType": "uint256",
          "name": "_toTokenId",
          "type": "uint256"
        }
      ],
      "name": "BatchMetadataUpdate",
      "type": "event"
    },
    {
      "anonymous": false,
      "inputs": [
        {
          "indexed": false,
          "internalType": "uint256",
          "name": "tokenId",
          "type": "uint256"
        },
        {
          "indexed": false,
          "internalType": "uint256",
          "name": "amount",
          "type": "uint256"
        }
      ],
      "name": "BidPlaced",
      "type": "event"
    },
    {
      "anonymous": false,
      "inputs": [
        {
          "indexed": false,
          "internalType": "uint256",
          "name": "tokenId",
          "type": "uint256"
        },
        {
          "indexed": false,
          "internalType": "uint256",
          "name": "price",
          "type": "uint256"
        }
      ],
      "name": "ListedForSale",
      "type": "event"
    },
    {
      "anonymous": false,
      "inputs": [
        {
          "indexed": false,
          "internalType": "uint256",
          "name": "_tokenId",
          "type": "uint256"
        }
      ],
      "name": "MetadataUpdate",
      "type": "event"
    },
    {
      "anonymous": false,
      "inputs": [
        {
          "indexed": false,
          "internalType": "uint256",
          "name": "tokenId",
          "type": "uint256"
        },
        {
          "indexed": false,
          "internalType": "address",
          "name": "creator",
          "type": "address"
        }
      ],
      "name": "NFTMinted",
      "type": "event"
    },
    {
      "anonymous": false,
      "inputs": [
        {
          "indexed": false,
          "internalType": "uint256",
          "name": "tokenId",
          "type": "uint256"
        },
        {
          "indexed": false,
          "internalType": "address",
          "name": "buyer",
          "type": "address"
        }
      ],
      "name": "NFTPurchased",
      "type": "event"
    },
    {
      "anonymous": false,
      "inputs": [
        {
          "indexed": false,
          "internalType": "uint256",
          "name": "tokenId",
          "type": "uint256"
        },
        {
          "indexed": false,
          "internalType": "address",
          "name": "to",
          "type": "address"
        }
      ],
      "name": "NFTTransferred",
      "type": "event"
    },
    {
      "anonymous": false,
      "inputs": [
        {
          "indexed": true,
          "internalType": "address",
          "name": "previousOwner",
          "type": "address"
        },
        {
          "indexed": true,
          "internalType": "address",
          "name": "newOwner",
          "type": "address"
        }
      ],
      "name": "OwnershipTransferred",
      "type": "event"
    },
    {
      "anonymous": false,
      "inputs": [
        {
          "indexed": false,
          "internalType": "uint256",
          "name": "tokenId",
          "type": "uint256"
        }
      ],
      "name": "SaleCancelled",
      "type": "event"
    },
    {
      "anonymous": false,
      "inputs": [
        {
          "indexed": true,
          "internalType": "address",
          "name": "from",
          "type": "address"
        },
        {
          "indexed": true,
          "internalType": "address",
          "name": "to",
          "type": "address"
        },
        {
          "indexed": true,
          "internalType": "uint256",
          "name": "tokenId",
          "type": "uint256"
        }
      ],
      "name": "Transfer",
      "type": "event"
    },
    {
      "inputs": [
        {
          "internalType": "address",
          "name": "to",
          "type": "address"
        },
        {
          "internalType": "uint256",
          "name": "tokenId",
          "type": "uint256"
        }
      ],
      "name": "approve",
      "outputs": [],
      "stateMutability": "nonpayable",
      "type": "function"
    },
    {
      "inputs": [
        {
          "internalType": "uint256",
          "name": "tokenId",
          "type": "uint256"
        },
        {
          "internalType": "uint256",
          "name": "index",
          "type": "uint256"
        }
      ],
      "name": "approvePurchaseRequest",
      "outputs": [],
      "stateMutability": "nonpayable",
      "type": "function"
    },
    {
      "inputs": [
        {
          "internalType": "uint256",
          "name": "",
          "type": "uint256"
        }
      ],
      "name": "auctions",
      "outputs": [
        {
          "internalType": "uint256",
          "name": "startPrice",
          "type": "uint256"
        },
        {
          "internalType": "uint256",
          "name": "highestBid",
          "type": "uint256"
        },
        {
          "internalType": "address",
          "name": "highestBidder",
          "type": "address"
        },
        {
          "internalType": "uint256",
          "name": "endTime",
          "type": "uint256"
        },
        {
          "internalType": "address",
          "name": "seller",
          "type": "address"
        },
        {
          "internalType": "bool",
          "name": "active",
          "type": "bool"
        }
      ],
      "stateMutability": "view",
      "type": "function"
    },
    {
      "inputs": [
        {
          "internalType": "address",
          "name": "owner",
          "type": "address"
        }
      ],
      "name": "balanceOf",
      "outputs": [
        {
          "internalType": "uint256",
          "name": "",
          "type": "uint256"
        }
      ],
      "stateMutability": "view",
      "type": "function"
    },
    {
      "inputs": [
        {
          "internalType": "uint256",
          "name": "tokenId",
          "type": "uint256"
        }
      ],
      "name": "buyNFT",
      "outputs": [],
      "stateMutability": "payable",
      "type": "function"
    },
    {
      "inputs": [
        {
          "internalType": "uint256",
          "name": "tokenId",
          "type": "uint256"
        }
      ],
      "name": "cancelSale",
      "outputs": [],
      "stateMutability": "nonpayable",
      "type": "function"
    },
    {
      "inputs": [
        {
          "internalType": "uint256",
          "name": "tokenId",
          "type": "uint256"
        },
        {
          "internalType": "uint256",
          "name": "startPrice",
          "type": "uint256"
        },
        {
          "internalType": "uint256",
          "name": "duration",
          "type": "uint256"
        }
      ],
      "name": "createAuction",
      "outputs": [],
      "stateMutability": "nonpayable",
      "type": "function"
    },
    {
      "inputs": [
        {
          "internalType": "uint256",
          "name": "tokenId",
          "type": "uint256"
        }
      ],
      "name": "endAuction",
      "outputs": [],
      "stateMutability": "nonpayable",
      "type": "function"
    },
    {
      "inputs": [
        {
          "internalType": "uint256",
          "name": "tokenId",
          "type": "uint256"
        }
      ],
      "name": "getApproved",
      "outputs": [
        {
          "internalType": "address",
          "name": "",
          "type": "address"
        }
      ],
      "stateMutability": "view",
      "type": "function"
    },
    {
      "inputs": [
        {
          "internalType": "address",
          "name": "owner",
          "type": "address"
        },
        {
          "internalType": "address",
          "name": "operator",
          "type": "address"
        }
      ],
      "name": "isApprovedForAll",
      "outputs": [
        {
          "internalType": "bool",
          "name": "",
          "type": "bool"
        }
      ],
      "stateMutability": "view",
      "type": "function"
    },
    {
      "inputs": [
        {
          "internalType": "uint256",
          "name": "tokenId",
          "type": "uint256"
        },
        {
          "internalType": "uint256",
          "name": "price",
          "type": "uint256"
        }
      ],
      "name": "listForSale",
      "outputs": [],
      "stateMutability": "nonpayable",
      "type": "function"
    },
    {
      "inputs": [
        {
          "internalType": "uint256",
          "name": "",
          "type": "uint256"
        }
      ],
      "name": "marketplaceListings",
      "outputs": [
        {
          "internalType": "uint256",
          "name": "price",
          "type": "uint256"
        },
        {
          "internalType": "address",
          "name": "seller",
          "type": "address"
        },
        {
          "internalType": "bool",
          "name": "active",
          "type": "bool"
        }
      ],
      "stateMutability": "view",
      "type": "function"
    },
    {
      "inputs": [
        {
          "internalType": "string",
          "name": "tokenURI",
          "type": "string"
        },
        {
          "internalType": "string",
          "name": "name",
          "type": "string"
        },
        {
          "internalType": "string",
          "name": "description",
          "type": "string"
        },
        {
          "internalType": "enum MythicNFTMarketplace.NFTType",
          "name": "nftType",
          "type": "uint8"
        }
      ],
      "name": "mintNFT",
      "outputs": [],
      "stateMutability": "nonpayable",
      "type": "function"
    },
    {
      "inputs": [],
      "name": "name",
      "outputs": [
        {
          "internalType": "string",
          "name": "",
          "type": "string"
        }
      ],
      "stateMutability": "view",
      "type": "function"
    },
    {
      "inputs": [
        {
          "internalType": "uint256",
          "name": "",
          "type": "uint256"
        }
      ],
      "name": "nftMetadata",
      "outputs": [
        {
          "internalType": "string",
          "name": "name",
          "type": "string"
        },
        {
          "internalType": "string",
          "name": "description",
          "type": "string"
        },
        {
          "internalType": "enum MythicNFTMarketplace.NFTType",
          "name": "nftType",
          "type": "uint8"
        },
        {
          "internalType": "address",
          "name": "creator",
          "type": "address"
        }
      ],
      "stateMutability": "view",
      "type": "function"
    },
    {
      "inputs": [],
      "name": "owner",
      "outputs": [
        {
          "internalType": "address",
          "name": "",
          "type": "address"
        }
      ],
      "stateMutability": "view",
      "type": "function"
    },
    {
      "inputs": [
        {
          "internalType": "uint256",
          "name": "tokenId",
          "type": "uint256"
        }
      ],
      "name": "ownerOf",
      "outputs": [
        {
          "internalType": "address",
          "name": "",
          "type": "address"
        }
      ],
      "stateMutability": "view",
      "type": "function"
    },
    {
      "inputs": [
        {
          "internalType": "uint256",
          "name": "tokenId",
          "type": "uint256"
        }
      ],
      "name": "placeBid",
      "outputs": [],
      "stateMutability": "payable",
      "type": "function"
    },
    {
      "inputs": [
        {
          "internalType": "uint256",
          "name": "",
          "type": "uint256"
        },
        {
          "internalType": "uint256",
          "name": "",
          "type": "uint256"
        }
      ],
      "name": "purchaseRequests",
      "outputs": [
        {
          "internalType": "address",
          "name": "buyer",
          "type": "address"
        },
        {
          "internalType": "uint256",
          "name": "offeredPrice",
          "type": "uint256"
        },
        {
          "internalType": "bool",
          "name": "active",
          "type": "bool"
        }
      ],
      "stateMutability": "view",
      "type": "function"
    },
    {
      "inputs": [],
      "name": "renounceOwnership",
      "outputs": [],
      "stateMutability": "nonpayable",
      "type": "function"
    },
    {
      "inputs": [
        {
          "internalType": "uint256",
          "name": "tokenId",
          "type": "uint256"
        },
        {
          "internalType": "uint256",
          "name": "price",
          "type": "uint256"
        }
      ],
      "name": "requestPurchase",
      "outputs": [],
      "stateMutability": "nonpayable",
      "type": "function"
    },
    {
      "inputs": [
        {
          "internalType": "address",
          "name": "from",
          "type": "address"
        },
        {
          "internalType": "address",
          "name": "to",
          "type": "address"
        },
        {
          "internalType": "uint256",
          "name": "tokenId",
          "type": "uint256"
        }
      ],
      "name": "safeTransferFrom",
      "outputs": [],
      "stateMutability": "nonpayable",
      "type": "function"
    },
    {
      "inputs": [
        {
          "internalType": "address",
          "name": "from",
          "type": "address"
        },
        {
          "internalType": "address",
          "name": "to",
          "type": "address"
        },
        {
          "internalType": "uint256",
          "name": "tokenId",
          "type": "uint256"
        },
        {
          "internalType": "bytes",
          "name": "data",
          "type": "bytes"
        }
      ],
      "name": "safeTransferFrom",
      "outputs": [],
      "stateMutability": "nonpayable",
      "type": "function"
    },
    {
      "inputs": [
        {
          "internalType": "address",
          "name": "operator",
          "type": "address"
        },
        {
          "internalType": "bool",
          "name": "approved",
          "type": "bool"
        }
      ],
      "name": "setApprovalForAll",
      "outputs": [],
      "stateMutability": "nonpayable",
      "type": "function"
    },
    {
      "inputs": [
        {
          "internalType": "bytes4",
          "name": "interfaceId",
          "type": "bytes4"
        }
      ],
      "name": "supportsInterface",
      "outputs": [
        {
          "internalType": "bool",
          "name": "",
          "type": "bool"
        }
      ],
      "stateMutability": "view",
      "type": "function"
    },
    {
      "inputs": [],
      "name": "symbol",
      "outputs": [
        {
          "internalType": "string",
          "name": "",
          "type": "string"
        }
      ],
      "stateMutability": "view",
      "type": "function"
    },
    {
      "inputs": [],
      "name": "tokenCounter",
      "outputs": [
        {
          "internalType": "uint256",
          "name": "",
          "type": "uint256"
        }
      ],
      "stateMutability": "view",
      "type": "function"
    },
    {
      "inputs": [
        {
          "internalType": "uint256",
          "name": "tokenId",
          "type": "uint256"
        }
      ],
      "name": "tokenURI",
      "outputs": [
        {
          "internalType": "string",
          "name": "",
          "type": "string"
        }
      ],
      "stateMutability": "view",
      "type": "function"
    },
    {
      "inputs": [
        {
          "internalType": "address",
          "name": "from",
          "type": "address"
        },
        {
          "internalType": "address",
          "name": "to",
          "type": "address"
        },
        {
          "internalType": "uint256",
          "name": "tokenId",
          "type": "uint256"
        }
      ],
      "name": "transferFrom",
      "outputs": [],
      "stateMutability": "nonpayable",
      "type": "function"
    },
    {
      "inputs": [
        {
          "internalType": "uint256",
          "name": "tokenId",
          "type": "uint256"
        },
        {
          "internalType": "address",
          "name": "to",
          "type": "address"
        }
      ],
      "name": "transferNFT",
      "outputs": [],
      "stateMutability": "nonpayable",
      "type": "function"
    },
    {
      "inputs": [
        {
          "internalType": "address",
          "name": "newOwner",
          "type": "address"
        }
      ],
      "name": "transferOwnership",
      "outputs": [],
      "stateMutability": "nonpayable",
      "type": "function"
    }
  ],
  "bytecode": "0x608060405234801561001057600080fd5b503360405180604001604052806009815260200168135e5d1a1a58d3919560ba1b8152506040518060400160405280600481526020016309ab2a8960e31b815250816000908161006091906101a8565b50600161006d82826101a8565b50506001600755506001600160a01b0381166100a357604051631e4fbdf760e01b81526000600482015260240160405180910390fd5b6100ac816100b7565b506000600955610266565b600880546001600160a01b038381166001600160a01b0319831681179093556040519116919082907f8be0079c531659141344cd1fd0a4f28419497f9722a3daafe3b4186f6b6457e090600090a35050565b634e487b7160e01b600052604160045260246000fd5b600181811c9082168061013357607f821691505b60208210810361015357634e487b7160e01b600052602260045260246000fd5b50919050565b601f8211156101a357806000526020600020601f840160051c810160208510156101805750805b601f840160051c820191505b818110156101a0576000815560010161018c565b50505b505050565b81516001600160401b038111156101c1576101c1610109565b6101d5816101cf845461011f565b84610159565b6020601f82116001811461020957600083156101f15750848201515b600019600385901b1c1916600184901b1784556101a0565b600084815260208120601f198516915b828110156102395787850151825560209485019460019092019101610219565b50848210156102575786840151600019600387901b60f8161c191681555b50505050600190811b01905550565b612952806102756000396000f3fe6080604052600436106101d85760003560e01c80638da5cb5b11610102578063bd94b00511610095578063e80d7fec11610064578063e80d7fec14610644578063e985e9c514610664578063eaf60b5114610684578063f2fde38b146106a457600080fd5b8063bd94b005146105ce578063c87b56dd146105ee578063cda4beef1461060e578063d082e3811461062e57600080fd5b8063a22cb465116100d1578063a22cb4651461054e578063b1d8c3d61461056e578063b88d4fde1461058e578063b9a2de3a146105ae57600080fd5b80638da5cb5b146104e85780639036c0501461050657806395d89b41146105265780639979ef451461053b57600080fd5b8063495410151161017a5780636352211e116101495780636352211e1461046557806364fc0ff61461048557806370a08231146104a5578063715018a6146104d357600080fd5b8063495410151461033c5780634c25ab421461036c57806351ed8288146103b3578063571a26a0146103c657600080fd5b8063095ea7b3116101b6578063095ea7b31461026c57806323b872dd1461028e57806342842e0e146102ae57806348c32093146102ce57600080fd5b806301ffc9a7146101dd57806306fdde0314610212578063081812fc14610234575b600080fd5b3480156101e957600080fd5b506101fd6101f836600461226e565b6106c4565b60405190151581526020015b60405180910390f35b34801561021e57600080fd5b506102276106ef565b60405161020991906122db565b34801561024057600080fd5b5061025461024f3660046122ee565b610781565b6040516001600160a01b039091168152602001610209565b34801561027857600080fd5b5061028c610287366004612323565b6107aa565b005b34801561029a57600080fd5b5061028c6102a936600461234d565b6107b9565b3480156102ba57600080fd5b5061028c6102c936600461234d565b610849565b3480156102da57600080fd5b506103176102e93660046122ee565b600b60205260009081526040902080546001909101546001600160a01b03811690600160a01b900460ff1683565b604080519384526001600160a01b039092166020840152151590820152606001610209565b34801561034857600080fd5b5061035c6103573660046122ee565b610869565b60405161020994939291906123a0565b34801561037857600080fd5b5061038c610387366004612406565b6109af565b604080516001600160a01b0390941684526020840192909252151590820152606001610209565b61028c6103c13660046122ee565b6109fe565b3480156103d257600080fd5b506104276103e13660046122ee565b600c6020526000908152604090208054600182015460028301546003840154600490940154929391926001600160a01b039182169291811690600160a01b900460ff1686565b6040805196875260208701959095526001600160a01b03938416948601949094526060850191909152166080830152151560a082015260c001610209565b34801561047157600080fd5b506102546104803660046122ee565b610bb2565b34801561049157600080fd5b5061028c6104a0366004612406565b610bbd565b3480156104b157600080fd5b506104c56104c0366004612428565b610c93565b604051908152602001610209565b3480156104df57600080fd5b5061028c610cdb565b3480156104f457600080fd5b506008546001600160a01b0316610254565b34801561051257600080fd5b5061028c610521366004612443565b610cef565b34801561053257600080fd5b50610227610d70565b61028c6105493660046122ee565b610d7f565b34801561055a57600080fd5b5061028c61056936600461246f565b610fcd565b34801561057a57600080fd5b5061028c61058936600461255b565b610fd8565b34801561059a57600080fd5b5061028c6105a9366004612606565b6110ff565b3480156105ba57600080fd5b5061028c6105c93660046122ee565b611117565b3480156105da57600080fd5b5061028c6105e93660046122ee565b6112f6565b3480156105fa57600080fd5b506102276106093660046122ee565b61138c565b34801561061a57600080fd5b5061028c610629366004612682565b61149d565b34801561063a57600080fd5b506104c560095481565b34801561065057600080fd5b5061028c61065f366004612406565b61161c565b34801561067057600080fd5b506101fd61067f3660046126ae565b611743565b34801561069057600080fd5b5061028c61069f366004612406565b611771565b3480156106b057600080fd5b5061028c6106bf366004612428565b6118de565b60006001600160e01b03198216632483248360e11b14806106e957506106e982611919565b92915050565b6060600080546106fe906126d8565b80601f016020809104026020016040519081016040528092919081815260200182805461072a906126d8565b80156107775780601f1061074c57610100808354040283529160200191610777565b820191906000526020600020905b81548152906001019060200180831161075a57829003601f168201915b5050505050905090565b600061078c82611969565b506000828152600460205260409020546001600160a01b03166106e9565b6107b58282336119a2565b5050565b6001600160a01b0382166107e857604051633250574960e11b8152600060048201526024015b60405180910390fd5b60006107f58383336119af565b9050836001600160a01b0316816001600160a01b031614610843576040516364283d7b60e01b81526001600160a01b03808616600483015260248201849052821660448201526064016107df565b50505050565b610864838383604051806020016040528060008152506110ff565b505050565b600a60205260009081526040902080548190610884906126d8565b80601f01602080910402602001604051908101604052809291908181526020018280546108b0906126d8565b80156108fd5780601f106108d2576101008083540402835291602001916108fd565b820191906000526020600020905b8154815290600101906020018083116108e057829003601f168201915b505050505090806001018054610912906126d8565b80601f016020809104026020016040519081016040528092919081815260200182805461093e906126d8565b801561098b5780601f106109605761010080835404028352916020019161098b565b820191906000526020600020905b81548152906001019060200180831161096e57829003601f168201915b5050506002909301549192505060ff8116906001600160a01b036101009091041684565b600d60205281600052604060002081815481106109cb57600080fd5b60009182526020909120600390910201805460018201546002909201546001600160a01b03909116935090915060ff1683565b610a06611aa8565b6000818152600b602052604090206001810154600160a01b900460ff16610a5e5760405162461bcd60e51b815260206004820152600c60248201526b4e6f7420666f722073616c6560a01b60448201526064016107df565b80543414610aa05760405162461bcd60e51b815260206004820152600f60248201526e496e636f727265637420707269636560881b60448201526064016107df565b60018101805460ff60a01b1981169091556040516000916001600160a01b03169034908381818185875af1925050503d8060008114610afb576040519150601f19603f3d011682016040523d82523d6000602084013e610b00565b606091505b5050905080610b515760405162461bcd60e51b815260206004820152601860248201527f5061796d656e7420746f2073656c6c6572206661696c6564000000000000000060448201526064016107df565b6001820154610b6a906001600160a01b03163385611ad2565b604080518481523360208201527fbebca6653c629a651174dc2ea9b9f7ef506290dee89fe1a6087eb1e12c06d43091015b60405180910390a15050610baf6001600755565b50565b60006106e982611969565b33610bc783610bb2565b6001600160a01b031603610c145760405162461bcd60e51b815260206004820152601460248201527313dddb995c8818d85b9b9bdd081c995c5d595cdd60621b60448201526064016107df565b6000918252600d602090815260408084208151606081018352338152808401948552600192810183815282548085018455928752939095209451600390910290940180546001600160a01b0319166001600160a01b03909516949094178455915191830191909155516002909101805460ff1916911515919091179055565b60006001600160a01b038216610cbf576040516322718ad960e21b8152600060048201526024016107df565b506001600160a01b031660009081526003602052604090205490565b610ce3611b82565b610ced6000611baf565b565b33610cf983610bb2565b6001600160a01b031614610d1f5760405162461bcd60e51b81526004016107df90612712565b610d2a338284611ad2565b604080518381526001600160a01b03831660208201527f20665ee57a5e13af162123968d777ccebe86531a21e53d08afc78138a950192d91015b60405180910390a15050565b6060600180546106fe906126d8565b610d87611aa8565b6000818152600c602052604090206004810154600160a01b900460ff16610de35760405162461bcd60e51b815260206004820152601060248201526f41756374696f6e20696e61637469766560801b60448201526064016107df565b80600301544210610e265760405162461bcd60e51b815260206004820152600d60248201526c105d58dd1a5bdb88195b991959609a1b60448201526064016107df565b60048101546001600160a01b03163303610e755760405162461bcd60e51b815260206004820152601060248201526f13dddb995c8818d85b9b9bdd08189a5960821b60448201526064016107df565b80600101543411610eb65760405162461bcd60e51b815260206004820152600b60248201526a42696420746f6f206c6f7760a81b60448201526064016107df565b60028101546001600160a01b031615610f6457600281015460018201546040516000926001600160a01b031691908381818185875af1925050503d8060008114610f1c576040519150601f19603f3d011682016040523d82523d6000602084013e610f21565b606091505b5050905080610f625760405162461bcd60e51b815260206004820152600d60248201526c1499599d5b990819985a5b1959609a1b60448201526064016107df565b505b34600182018190556002820180546001600160a01b031916331790556040517f0fc69407039e8ba8cdd517e2a4cae9dd19697b0a500ff37a2425c59ebc649b3191610fba91859190918252602082015260400190565b60405180910390a150610baf6001600755565b6107b5338383611c01565b600954610fe53382611ca0565b610fef8186611cba565b60405180608001604052808581526020018481526020018360048111156110185761101861238a565b8152336020918201526000838152600a909152604090208151819061103d908261277c565b5060208201516001820190611052908261277c565b50604082015160028201805460ff191660018360048111156110765761107661238a565b021790555060609190910151600290910180546001600160a01b0390921661010002610100600160a81b0319909216919091179055600980549060006110bb83612851565b9091555050604080518281523360208201527f0176f203df400d7bd5f1b1c9ef36c16709bf3b5d9fd35f000a6bae32393f66c3910160405180910390a15050505050565b61110a8484846107b9565b6108433385858585611d03565b61111f611aa8565b6000818152600c602052604090206004810154600160a01b900460ff1661117b5760405162461bcd60e51b815260206004820152601060248201526f41756374696f6e20696e61637469766560801b60448201526064016107df565b80600301544210156111c35760405162461bcd60e51b8152602060048201526011602482015270105d58dd1a5bdb881b9bdd08195b991959607a1b60448201526064016107df565b60048101805460ff60a01b1916905560028101546001600160a01b0316156112eb57600481015460018201546040516000926001600160a01b031691908381818185875af1925050503d8060008114611238576040519150601f19603f3d011682016040523d82523d6000602084013e61123d565b606091505b50509050806112865760405162461bcd60e51b8152602060048201526015602482015274105d58dd1a5bdb881c185e5bdd5d0819985a5b1959605a1b60448201526064016107df565b600482015460028301546112a7916001600160a01b03908116911685611ad2565b6002820154604080518581526001600160a01b0390921660208301527fc07789fac136048b605fef8e227ab89b2e33d8afc9ab4817d374197cd81443d69101610b9b565b50610baf6001600755565b6000818152600b6020526040902060018101546001600160a01b0316331461134d5760405162461bcd60e51b815260206004820152600a6024820152692737ba1039b2b63632b960b11b60448201526064016107df565b60018101805460ff60a01b191690556040518281527f2c56893f6f6026d19bd17b7d05c9f15c522de1ae2b1c3a825f91a73c799321f290602001610d64565b606061139782611969565b50600082815260066020526040812080546113b1906126d8565b80601f01602080910402602001604051908101604052809291908181526020018280546113dd906126d8565b801561142a5780601f106113ff5761010080835404028352916020019161142a565b820191906000526020600020905b81548152906001019060200180831161140d57829003601f168201915b50505050509050600061144860408051602081019091526000815290565b9050805160000361145a575092915050565b81511561148c57808260405160200161147492919061286a565b60405160208183030381529060405292505050919050565b61149584611e2e565b949350505050565b336114a784610bb2565b6001600160a01b0316146114cd5760405162461bcd60e51b81526004016107df90612712565b600081116115105760405162461bcd60e51b815260206004820152601060248201526f24b73b30b634b210323ab930ba34b7b760811b60448201526064016107df565b6040518060c001604052808381526020016000815260200160006001600160a01b0316815260200182426115449190612899565b815233602080830191909152600160409283018190526000878152600c8352839020845181559184015190820155908201516002820180546001600160a01b0319166001600160a01b039283161790556060830151600383015560808301516004909201805460a090940151929091166001600160a81b031990931692909217600160a01b911515919091021790557fe00a2da3a0f34a566402a244ab7ec63f8ab7472591cb18edf3269aa00461a410836115ff8342612899565b6040805192835260208301919091520160405180910390a1505050565b3361162683610bb2565b6001600160a01b03161461166c5760405162461bcd60e51b815260206004820152600d60248201526c2737ba1027232a1037bbb732b960991b60448201526064016107df565b600081116116b05760405162461bcd60e51b815260206004820152601160248201527005072696365206d757374206265203e203607c1b60448201526064016107df565b6040805160608101825282815233602080830191825260018385018181526000888152600b84528690209451855592519301805492511515600160a01b026001600160a81b03199093166001600160a01b03909416939093179190911790915581518481529081018390527f27aebf2e0e5cf25f00bd3797d26b69f66ac7ccb85a55702906e672e9cb7d1c259101610d64565b6001600160a01b03918216600090815260056020908152604080832093909416825291909152205460ff1690565b611779611aa8565b6000828152600d60205260408120805483908110611799576117996128ac565b60009182526020909120600390910201600281015490915060ff166117f35760405162461bcd60e51b815260206004820152601060248201526f5265717565737420696e61637469766560801b60448201526064016107df565b336117fd84610bb2565b6001600160a01b0316146118235760405162461bcd60e51b81526004016107df90612712565b60028101805460ff19169055600181015460405160009133918381818185875af1925050503d8060008114611874576040519150601f19603f3d011682016040523d82523d6000602084013e611879565b606091505b50509050806118bb5760405162461bcd60e51b815260206004820152600e60248201526d14185e5b595b9d0819985a5b195960921b60448201526064016107df565b81546118d29033906001600160a01b031686611ad2565b50506107b56001600755565b6118e6611b82565b6001600160a01b03811661191057604051631e4fbdf760e01b8152600060048201526024016107df565b610baf81611baf565b60006001600160e01b031982166380ac58cd60e01b148061194a57506001600160e01b03198216635b5e139f60e01b145b806106e957506301ffc9a760e01b6001600160e01b03198316146106e9565b6000818152600260205260408120546001600160a01b0316806106e957604051637e27328960e01b8152600481018490526024016107df565b6108648383836001611ea3565b6000828152600260205260408120546001600160a01b03908116908316156119dc576119dc818486611fa9565b6001600160a01b03811615611a1a576119f9600085600080611ea3565b6001600160a01b038116600090815260036020526040902080546000190190555b6001600160a01b03851615611a49576001600160a01b0385166000908152600360205260409020805460010190555b60008481526002602052604080822080546001600160a01b0319166001600160a01b0389811691821790925591518793918516917fddf252ad1be2c89b69c2b068fc378daa952ba7f163c4a11628f55a4df523b3ef91a4949350505050565b600260075403611acb57604051633ee5aeb560e01b815260040160405180910390fd5b6002600755565b6001600160a01b038216611afc57604051633250574960e11b8152600060048201526024016107df565b6000611b0a838360006119af565b90506001600160a01b038116611b3657604051637e27328960e01b8152600481018390526024016107df565b836001600160a01b0316816001600160a01b031614610843576040516364283d7b60e01b81526001600160a01b03808616600483015260248201849052821660448201526064016107df565b6008546001600160a01b03163314610ced5760405163118cdaa760e01b81523360048201526024016107df565b600880546001600160a01b038381166001600160a01b0319831681179093556040519116919082907f8be0079c531659141344cd1fd0a4f28419497f9722a3daafe3b4186f6b6457e090600090a35050565b6001600160a01b038216611c3357604051630b61174360e31b81526001600160a01b03831660048201526024016107df565b6001600160a01b03838116600081815260056020908152604080832094871680845294825291829020805460ff191686151590811790915591519182527f17307eab39ab6107e8899845ad3d59bd9653f200f220920489ca2b5937696c31910160405180910390a3505050565b6107b582826040518060200160405280600081525061200d565b6000828152600660205260409020611cd2828261277c565b506040518281527ff8e1a15aba9398e019f0b49df1a4fde98ee17ae345cb5f6b5e2c27f5033e8ce790602001610d64565b6001600160a01b0383163b15611e2757604051630a85bd0160e11b81526001600160a01b0384169063150b7a0290611d459088908890879087906004016128c2565b6020604051808303816000875af1925050508015611d80575060408051601f3d908101601f19168201909252611d7d918101906128ff565b60015b611de9573d808015611dae576040519150601f19603f3d011682016040523d82523d6000602084013e611db3565b606091505b508051600003611de157604051633250574960e11b81526001600160a01b03851660048201526024016107df565b805160208201fd5b6001600160e01b03198116630a85bd0160e11b14611e2557604051633250574960e11b81526001600160a01b03851660048201526024016107df565b505b5050505050565b6060611e3982611969565b506000611e5160408051602081019091526000815290565b90506000815111611e715760405180602001604052806000815250611e9c565b80611e7b84612025565b604051602001611e8c92919061286a565b6040516020818303038152906040525b9392505050565b8080611eb757506001600160a01b03821615155b15611f79576000611ec784611969565b90506001600160a01b03831615801590611ef35750826001600160a01b0316816001600160a01b031614155b8015611f065750611f048184611743565b155b15611f2f5760405163a9fbf51f60e01b81526001600160a01b03841660048201526024016107df565b8115611f775783856001600160a01b0316826001600160a01b03167f8c5be1e5ebec7d5bd14f71427d1e84f3dd0314c0f7b2291e5b200ac8c7c3b92560405160405180910390a45b505b5050600090815260046020526040902080546001600160a01b0319166001600160a01b0392909216919091179055565b611fb48383836120b8565b610864576001600160a01b038316611fe257604051637e27328960e01b8152600481018290526024016107df565b60405163177e802f60e01b81526001600160a01b0383166004820152602481018290526044016107df565b612017838361211b565b610864336000858585611d03565b6060600061203283612180565b600101905060008167ffffffffffffffff811115612052576120526124ab565b6040519080825280601f01601f19166020018201604052801561207c576020820181803683370190505b5090508181016020015b600019016f181899199a1a9b1b9c1cb0b131b232b360811b600a86061a8153600a850494508461208657509392505050565b60006001600160a01b038316158015906114955750826001600160a01b0316846001600160a01b031614806120f257506120f28484611743565b806114955750506000908152600460205260409020546001600160a01b03908116911614919050565b6001600160a01b03821661214557604051633250574960e11b8152600060048201526024016107df565b6000612153838360006119af565b90506001600160a01b03811615610864576040516339e3563760e11b8152600060048201526024016107df565b60008072184f03e93ff9f4daa797ed6e38ed64bf6a1f0160401b83106121bf5772184f03e93ff9f4daa797ed6e38ed64bf6a1f0160401b830492506040015b6d04ee2d6d415b85acef810000000083106121eb576d04ee2d6d415b85acef8100000000830492506020015b662386f26fc10000831061220957662386f26fc10000830492506010015b6305f5e1008310612221576305f5e100830492506008015b612710831061223557612710830492506004015b60648310612247576064830492506002015b600a83106106e95760010192915050565b6001600160e01b031981168114610baf57600080fd5b60006020828403121561228057600080fd5b8135611e9c81612258565b60005b838110156122a657818101518382015260200161228e565b50506000910152565b600081518084526122c781602086016020860161228b565b601f01601f19169290920160200192915050565b602081526000611e9c60208301846122af565b60006020828403121561230057600080fd5b5035919050565b80356001600160a01b038116811461231e57600080fd5b919050565b6000806040838503121561233657600080fd5b61233f83612307565b946020939093013593505050565b60008060006060848603121561236257600080fd5b61236b84612307565b925061237960208501612307565b929592945050506040919091013590565b634e487b7160e01b600052602160045260246000fd5b6080815260006123b360808301876122af565b82810360208401526123c581876122af565b915050600584106123e657634e487b7160e01b600052602160045260246000fd5b60408201939093526001600160a01b039190911660609091015292915050565b6000806040838503121561241957600080fd5b50508035926020909101359150565b60006020828403121561243a57600080fd5b611e9c82612307565b6000806040838503121561245657600080fd5b8235915061246660208401612307565b90509250929050565b6000806040838503121561248257600080fd5b61248b83612307565b9150602083013580151581146124a057600080fd5b809150509250929050565b634e487b7160e01b600052604160045260246000fd5b60008067ffffffffffffffff8411156124dc576124dc6124ab565b50604051601f19601f85018116603f0116810181811067ffffffffffffffff8211171561250b5761250b6124ab565b60405283815290508082840185101561252357600080fd5b83836020830137600060208583010152509392505050565b600082601f83011261254c57600080fd5b611e9c838335602085016124c1565b6000806000806080858703121561257157600080fd5b843567ffffffffffffffff81111561258857600080fd5b6125948782880161253b565b945050602085013567ffffffffffffffff8111156125b157600080fd5b6125bd8782880161253b565b935050604085013567ffffffffffffffff8111156125da57600080fd5b6125e68782880161253b565b9250506060850135600581106125fb57600080fd5b939692955090935050565b6000806000806080858703121561261c57600080fd5b61262585612307565b935061263360208601612307565b925060408501359150606085013567ffffffffffffffff81111561265657600080fd5b8501601f8101871361266757600080fd5b612676878235602084016124c1565b91505092959194509250565b60008060006060848603121561269757600080fd5b505081359360208301359350604090920135919050565b600080604083850312156126c157600080fd5b6126ca83612307565b915061246660208401612307565b600181811c908216806126ec57607f821691505b60208210810361270c57634e487b7160e01b600052602260045260246000fd5b50919050565b6020808252600990820152682737ba1037bbb732b960b91b604082015260600190565b601f82111561086457806000526020600020601f840160051c8101602085101561275c5750805b601f840160051c820191505b81811015611e275760008155600101612768565b815167ffffffffffffffff811115612796576127966124ab565b6127aa816127a484546126d8565b84612735565b6020601f8211600181146127de57600083156127c65750848201515b600019600385901b1c1916600184901b178455611e27565b600084815260208120601f198516915b8281101561280e57878501518255602094850194600190920191016127ee565b508482101561282c5786840151600019600387901b60f8161c191681555b50505050600190811b01905550565b634e487b7160e01b600052601160045260246000fd5b6000600182016128635761286361283b565b5060010190565b6000835161287c81846020880161228b565b83519083019061289081836020880161228b565b01949350505050565b808201808211156106e9576106e961283b565b634e487b7160e01b600052603260045260246000fd5b6001600160a01b03858116825284166020820152604081018390526080606082018190526000906128f5908301846122af565b9695505050505050565b60006020828403121561291157600080fd5b8151611e9c8161225856fea2646970667358221220b591e64f354f17957ae79c8f7aab289bc0d83a75dc5f3a9f2760ea5dda3014b164736f6c634300081c0033",
  "linkReferences": {},
  "deployedLinkReferences": {}
}