{
  "_format": "hh-sol-artifact-1",
  "contractName": "MythicNFTMarketplace",
  "sourceName": "contracts/MythicNFTMarketplace.sol",
  "abi": [
    {
      "inputs": [],
      "stateMutability": "nonpayable",
      "type": "constructor"
    },
    {
      "inputs": [
        {
          "internalType": "address",
          "name": "sender",
          "type": "address"
        },
        {
          "internalType": "uint256",
          "name": "tokenId",
          "type": "uint256"
        },
        {
          "internalType": "address",
          "name": "owner",
          "type": "address"
        }
      ],
      "name": "ERC721IncorrectOwner",
      "type": "error"
    },
    {
      "inputs": [
        {
          "internalType": "address",
          "name": "operator",
          "type": "address"
        },
        {
          "internalType": "uint256",
          "name": "tokenId",
          "type": "uint256"
        }
      ],
      "name": "ERC721InsufficientApproval",
      "type": "error"
    },
    {
      "inputs": [
        {
          "internalType": "address",
          "name": "approver",
          "type": "address"
        }
      ],
      "name": "ERC721InvalidApprover",
      "type": "error"
    },
    {
      "inputs": [
        {
          "internalType": "address",
          "name": "operator",
          "type": "address"
        }
      ],
      "name": "ERC721InvalidOperator",
      "type": "error"
    },
    {
      "inputs": [
        {
          "internalType": "address",
          "name": "owner",
          "type": "address"
        }
      ],
      "name": "ERC721InvalidOwner",
      "type": "error"
    },
    {
      "inputs": [
        {
          "internalType": "address",
          "name": "receiver",
          "type": "address"
        }
      ],
      "name": "ERC721InvalidReceiver",
      "type": "error"
    },
    {
      "inputs": [
        {
          "internalType": "address",
          "name": "sender",
          "type": "address"
        }
      ],
      "name": "ERC721InvalidSender",
      "type": "error"
    },
    {
      "inputs": [
        {
          "internalType": "uint256",
          "name": "tokenId",
          "type": "uint256"
        }
      ],
      "name": "ERC721NonexistentToken",
      "type": "error"
    },
    {
      "inputs": [
        {
          "internalType": "address",
          "name": "owner",
          "type": "address"
        }
      ],
      "name": "OwnableInvalidOwner",
      "type": "error"
    },
    {
      "inputs": [
        {
          "internalType": "address",
          "name": "account",
          "type": "address"
        }
      ],
      "name": "OwnableUnauthorizedAccount",
      "type": "error"
    },
    {
      "inputs": [],
      "name": "ReentrancyGuardReentrantCall",
      "type": "error"
    },
    {
      "anonymous": false,
      "inputs": [
        {
          "indexed": true,
          "internalType": "address",
          "name": "owner",
          "type": "address"
        },
        {
          "indexed": true,
          "internalType": "address",
          "name": "approved",
          "type": "address"
        },
        {
          "indexed": true,
          "internalType": "uint256",
          "name": "tokenId",
          "type": "uint256"
        }
      ],
      "name": "Approval",
      "type": "event"
    },
    {
      "anonymous": false,
      "inputs": [
        {
          "indexed": true,
          "internalType": "address",
          "name": "owner",
          "type": "address"
        },
        {
          "indexed": true,
          "internalType": "address",
          "name": "operator",
          "type": "address"
        },
        {
          "indexed": false,
          "internalType": "bool",
          "name": "approved",
          "type": "bool"
        }
      ],
      "name": "ApprovalForAll",
      "type": "event"
    },
    {
      "anonymous": false,
      "inputs": [
        {
          "indexed": false,
          "internalType": "uint256",
          "name": "tokenId",
          "type": "uint256"
        },
        {
          "indexed": false,
          "internalType": "uint256",
          "name": "endTime",
          "type": "uint256"
        }
      ],
      "name": "AuctionCreated",
      "type": "event"
    },
    {
      "anonymous": false,
      "inputs": [
        {
          "indexed": false,
          "internalType": "uint256",
          "name": "tokenId",
          "type": "uint256"
        },
        {
          "indexed": false,
          "internalType": "address",
          "name": "winner",
          "type": "address"
        }
      ],
      "name": "AuctionEnded",
      "type": "event"
    },
    {
      "anonymous": false,
      "inputs": [
        {
          "indexed": false,
          "internalType": "uint256",
          "name": "_fromTokenId",
          "type": "uint256"
        },
        {
          "indexed": false,
          "internalType": "uint256",
          "name": "_toTokenId",
          "type": "uint256"
        }
      ],
      "name": "BatchMetadataUpdate",
      "type": "event"
    },
    {
      "anonymous": false,
      "inputs": [
        {
          "indexed": false,
          "internalType": "uint256",
          "name": "tokenId",
          "type": "uint256"
        },
        {
          "indexed": false,
          "internalType": "uint256",
          "name": "amount",
          "type": "uint256"
        }
      ],
      "name": "BidPlaced",
      "type": "event"
    },
    {
      "anonymous": false,
      "inputs": [
        {
          "indexed": false,
          "internalType": "uint256",
          "name": "tokenId",
          "type": "uint256"
        },
        {
          "indexed": false,
          "internalType": "uint256",
          "name": "price",
          "type": "uint256"
        }
      ],
      "name": "ListedForSale",
      "type": "event"
    },
    {
      "anonymous": false,
      "inputs": [
        {
          "indexed": false,
          "internalType": "uint256",
          "name": "_tokenId",
          "type": "uint256"
        }
      ],
      "name": "MetadataUpdate",
      "type": "event"
    },
    {
      "anonymous": false,
      "inputs": [
        {
          "indexed": false,
          "internalType": "uint256",
          "name": "tokenId",
          "type": "uint256"
        },
        {
          "indexed": false,
          "internalType": "address",
          "name": "creator",
          "type": "address"
        }
      ],
      "name": "NFTMinted",
      "type": "event"
    },
    {
      "anonymous": false,
      "inputs": [
        {
          "indexed": false,
          "internalType": "uint256",
          "name": "tokenId",
          "type": "uint256"
        },
        {
          "indexed": false,
          "internalType": "address",
          "name": "buyer",
          "type": "address"
        }
      ],
      "name": "NFTPurchased",
      "type": "event"
    },
    {
      "anonymous": false,
      "inputs": [
        {
          "indexed": false,
          "internalType": "uint256",
          "name": "tokenId",
          "type": "uint256"
        },
        {
          "indexed": false,
          "internalType": "address",
          "name": "to",
          "type": "address"
        }
      ],
      "name": "NFTTransferred",
      "type": "event"
    },
    {
      "anonymous": false,
      "inputs": [
        {
          "indexed": true,
          "internalType": "address",
          "name": "previousOwner",
          "type": "address"
        },
        {
          "indexed": true,
          "internalType": "address",
          "name": "newOwner",
          "type": "address"
        }
      ],
      "name": "OwnershipTransferred",
      "type": "event"
    },
    {
      "anonymous": false,
      "inputs": [
        {
          "indexed": false,
          "internalType": "uint256",
          "name": "tokenId",
          "type": "uint256"
        }
      ],
      "name": "SaleCancelled",
      "type": "event"
    },
    {
      "anonymous": false,
      "inputs": [
        {
          "indexed": true,
          "internalType": "address",
          "name": "from",
          "type": "address"
        },
        {
          "indexed": true,
          "internalType": "address",
          "name": "to",
          "type": "address"
        },
        {
          "indexed": true,
          "internalType": "uint256",
          "name": "tokenId",
          "type": "uint256"
        }
      ],
      "name": "Transfer",
      "type": "event"
    },
    {
      "inputs": [
        {
          "internalType": "address",
          "name": "to",
          "type": "address"
        },
        {
          "internalType": "uint256",
          "name": "tokenId",
          "type": "uint256"
        }
      ],
      "name": "approve",
      "outputs": [],
      "stateMutability": "nonpayable",
      "type": "function"
    },
    {
      "inputs": [
        {
          "internalType": "uint256",
          "name": "tokenId",
          "type": "uint256"
        },
        {
          "internalType": "uint256",
          "name": "index",
          "type": "uint256"
        }
      ],
      "name": "approvePurchaseRequest",
      "outputs": [],
      "stateMutability": "nonpayable",
      "type": "function"
    },
    {
      "inputs": [
        {
          "internalType": "uint256",
          "name": "",
          "type": "uint256"
        }
      ],
      "name": "auctions",
      "outputs": [
        {
          "internalType": "uint256",
          "name": "startPrice",
          "type": "uint256"
        },
        {
          "internalType": "uint256",
          "name": "highestBid",
          "type": "uint256"
        },
        {
          "internalType": "address",
          "name": "highestBidder",
          "type": "address"
        },
        {
          "internalType": "uint256",
          "name": "endTime",
          "type": "uint256"
        },
        {
          "internalType": "address",
          "name": "seller",
          "type": "address"
        },
        {
          "internalType": "bool",
          "name": "active",
          "type": "bool"
        }
      ],
      "stateMutability": "view",
      "type": "function"
    },
    {
      "inputs": [
        {
          "internalType": "address",
          "name": "owner",
          "type": "address"
        }
      ],
      "name": "balanceOf",
      "outputs": [
        {
          "internalType": "uint256",
          "name": "",
          "type": "uint256"
        }
      ],
      "stateMutability": "view",
      "type": "function"
    },
    {
      "inputs": [
        {
          "internalType": "uint256",
          "name": "tokenId",
          "type": "uint256"
        }
      ],
      "name": "buyNFT",
      "outputs": [],
      "stateMutability": "payable",
      "type": "function"
    },
    {
      "inputs": [
        {
          "internalType": "uint256",
          "name": "tokenId",
          "type": "uint256"
        }
      ],
      "name": "cancelSale",
      "outputs": [],
      "stateMutability": "nonpayable",
      "type": "function"
    },
    {
      "inputs": [
        {
          "internalType": "uint256",
          "name": "tokenId",
          "type": "uint256"
        },
        {
          "internalType": "uint256",
          "name": "startPrice",
          "type": "uint256"
        },
        {
          "internalType": "uint256",
          "name": "duration",
          "type": "uint256"
        }
      ],
      "name": "createAuction",
      "outputs": [],
      "stateMutability": "nonpayable",
      "type": "function"
    },
    {
      "inputs": [
        {
          "internalType": "uint256",
          "name": "tokenId",
          "type": "uint256"
        }
      ],
      "name": "endAuction",
      "outputs": [],
      "stateMutability": "nonpayable",
      "type": "function"
    },
    {
      "inputs": [
        {
          "internalType": "uint256",
          "name": "tokenId",
          "type": "uint256"
        }
      ],
      "name": "getApproved",
      "outputs": [
        {
          "internalType": "address",
          "name": "",
          "type": "address"
        }
      ],
      "stateMutability": "view",
      "type": "function"
    },
    {
      "inputs": [
        {
          "internalType": "address",
          "name": "user",
          "type": "address"
        }
      ],
      "name": "getBalance",
      "outputs": [
        {
          "internalType": "uint256",
          "name": "",
          "type": "uint256"
        }
      ],
      "stateMutability": "view",
      "type": "function"
    },
    {
      "inputs": [
        {
          "internalType": "address",
          "name": "owner",
          "type": "address"
        },
        {
          "internalType": "address",
          "name": "operator",
          "type": "address"
        }
      ],
      "name": "isApprovedForAll",
      "outputs": [
        {
          "internalType": "bool",
          "name": "",
          "type": "bool"
        }
      ],
      "stateMutability": "view",
      "type": "function"
    },
    {
      "inputs": [
        {
          "internalType": "uint256",
          "name": "tokenId",
          "type": "uint256"
        },
        {
          "internalType": "uint256",
          "name": "price",
          "type": "uint256"
        }
      ],
      "name": "listForSale",
      "outputs": [],
      "stateMutability": "nonpayable",
      "type": "function"
    },
    {
      "inputs": [
        {
          "internalType": "uint256",
          "name": "",
          "type": "uint256"
        }
      ],
      "name": "marketplaceListings",
      "outputs": [
        {
          "internalType": "uint256",
          "name": "price",
          "type": "uint256"
        },
        {
          "internalType": "address",
          "name": "seller",
          "type": "address"
        },
        {
          "internalType": "bool",
          "name": "active",
          "type": "bool"
        }
      ],
      "stateMutability": "view",
      "type": "function"
    },
    {
      "inputs": [
        {
          "internalType": "string",
          "name": "tokenURI",
          "type": "string"
        },
        {
          "internalType": "string",
          "name": "name",
          "type": "string"
        },
        {
          "internalType": "string",
          "name": "description",
          "type": "string"
        },
        {
          "internalType": "enum MythicNFTMarketplace.NFTType",
          "name": "nftType",
          "type": "uint8"
        }
      ],
      "name": "mintNFT",
      "outputs": [],
      "stateMutability": "nonpayable",
      "type": "function"
    },
    {
      "inputs": [],
      "name": "name",
      "outputs": [
        {
          "internalType": "string",
          "name": "",
          "type": "string"
        }
      ],
      "stateMutability": "view",
      "type": "function"
    },
    {
      "inputs": [
        {
          "internalType": "uint256",
          "name": "",
          "type": "uint256"
        }
      ],
      "name": "nftMetadata",
      "outputs": [
        {
          "internalType": "string",
          "name": "name",
          "type": "string"
        },
        {
          "internalType": "string",
          "name": "description",
          "type": "string"
        },
        {
          "internalType": "enum MythicNFTMarketplace.NFTType",
          "name": "nftType",
          "type": "uint8"
        },
        {
          "internalType": "address",
          "name": "creator",
          "type": "address"
        }
      ],
      "stateMutability": "view",
      "type": "function"
    },
    {
      "inputs": [],
      "name": "owner",
      "outputs": [
        {
          "internalType": "address",
          "name": "",
          "type": "address"
        }
      ],
      "stateMutability": "view",
      "type": "function"
    },
    {
      "inputs": [
        {
          "internalType": "uint256",
          "name": "tokenId",
          "type": "uint256"
        }
      ],
      "name": "ownerOf",
      "outputs": [
        {
          "internalType": "address",
          "name": "",
          "type": "address"
        }
      ],
      "stateMutability": "view",
      "type": "function"
    },
    {
      "inputs": [
        {
          "internalType": "uint256",
          "name": "tokenId",
          "type": "uint256"
        }
      ],
      "name": "placeBid",
      "outputs": [],
      "stateMutability": "payable",
      "type": "function"
    },
    {
      "inputs": [
        {
          "internalType": "uint256",
          "name": "",
          "type": "uint256"
        },
        {
          "internalType": "uint256",
          "name": "",
          "type": "uint256"
        }
      ],
      "name": "purchaseRequests",
      "outputs": [
        {
          "internalType": "address",
          "name": "buyer",
          "type": "address"
        },
        {
          "internalType": "uint256",
          "name": "offeredPrice",
          "type": "uint256"
        },
        {
          "internalType": "bool",
          "name": "active",
          "type": "bool"
        }
      ],
      "stateMutability": "view",
      "type": "function"
    },
    {
      "inputs": [],
      "name": "renounceOwnership",
      "outputs": [],
      "stateMutability": "nonpayable",
      "type": "function"
    },
    {
      "inputs": [
        {
          "internalType": "uint256",
          "name": "tokenId",
          "type": "uint256"
        },
        {
          "internalType": "uint256",
          "name": "price",
          "type": "uint256"
        }
      ],
      "name": "requestPurchase",
      "outputs": [],
      "stateMutability": "nonpayable",
      "type": "function"
    },
    {
      "inputs": [
        {
          "internalType": "address",
          "name": "from",
          "type": "address"
        },
        {
          "internalType": "address",
          "name": "to",
          "type": "address"
        },
        {
          "internalType": "uint256",
          "name": "tokenId",
          "type": "uint256"
        }
      ],
      "name": "safeTransferFrom",
      "outputs": [],
      "stateMutability": "nonpayable",
      "type": "function"
    },
    {
      "inputs": [
        {
          "internalType": "address",
          "name": "from",
          "type": "address"
        },
        {
          "internalType": "address",
          "name": "to",
          "type": "address"
        },
        {
          "internalType": "uint256",
          "name": "tokenId",
          "type": "uint256"
        },
        {
          "internalType": "bytes",
          "name": "data",
          "type": "bytes"
        }
      ],
      "name": "safeTransferFrom",
      "outputs": [],
      "stateMutability": "nonpayable",
      "type": "function"
    },
    {
      "inputs": [
        {
          "internalType": "address",
          "name": "operator",
          "type": "address"
        },
        {
          "internalType": "bool",
          "name": "approved",
          "type": "bool"
        }
      ],
      "name": "setApprovalForAll",
      "outputs": [],
      "stateMutability": "nonpayable",
      "type": "function"
    },
    {
      "inputs": [
        {
          "internalType": "bytes4",
          "name": "interfaceId",
          "type": "bytes4"
        }
      ],
      "name": "supportsInterface",
      "outputs": [
        {
          "internalType": "bool",
          "name": "",
          "type": "bool"
        }
      ],
      "stateMutability": "view",
      "type": "function"
    },
    {
      "inputs": [],
      "name": "symbol",
      "outputs": [
        {
          "internalType": "string",
          "name": "",
          "type": "string"
        }
      ],
      "stateMutability": "view",
      "type": "function"
    },
    {
      "inputs": [],
      "name": "tokenCounter",
      "outputs": [
        {
          "internalType": "uint256",
          "name": "",
          "type": "uint256"
        }
      ],
      "stateMutability": "view",
      "type": "function"
    },
    {
      "inputs": [
        {
          "internalType": "uint256",
          "name": "tokenId",
          "type": "uint256"
        }
      ],
      "name": "tokenURI",
      "outputs": [
        {
          "internalType": "string",
          "name": "",
          "type": "string"
        }
      ],
      "stateMutability": "view",
      "type": "function"
    },
    {
      "inputs": [
        {
          "internalType": "address",
          "name": "from",
          "type": "address"
        },
        {
          "internalType": "address",
          "name": "to",
          "type": "address"
        },
        {
          "internalType": "uint256",
          "name": "tokenId",
          "type": "uint256"
        }
      ],
      "name": "transferFrom",
      "outputs": [],
      "stateMutability": "nonpayable",
      "type": "function"
    },
    {
      "inputs": [
        {
          "internalType": "uint256",
          "name": "tokenId",
          "type": "uint256"
        },
        {
          "internalType": "address",
          "name": "to",
          "type": "address"
        }
      ],
      "name": "transferNFT",
      "outputs": [],
      "stateMutability": "nonpayable",
      "type": "function"
    },
    {
      "inputs": [
        {
          "internalType": "address",
          "name": "newOwner",
          "type": "address"
        }
      ],
      "name": "transferOwnership",
      "outputs": [],
      "stateMutability": "nonpayable",
      "type": "function"
    }
  ],
  "bytecode": "0x608060405234801561001057600080fd5b503360405180604001604052806009815260200168135e5d1a1a58d3919560ba1b8152506040518060400160405280600481526020016309ab2a8960e31b815250816000908161006091906101a8565b50600161006d82826101a8565b50506001600755506001600160a01b0381166100a357604051631e4fbdf760e01b81526000600482015260240160405180910390fd5b6100ac816100b7565b506000600955610266565b600880546001600160a01b038381166001600160a01b0319831681179093556040519116919082907f8be0079c531659141344cd1fd0a4f28419497f9722a3daafe3b4186f6b6457e090600090a35050565b634e487b7160e01b600052604160045260246000fd5b600181811c9082168061013357607f821691505b60208210810361015357634e487b7160e01b600052602260045260246000fd5b50919050565b601f8211156101a357806000526020600020601f840160051c810160208510156101805750805b601f840160051c820191505b818110156101a0576000815560010161018c565b50505b505050565b81516001600160401b038111156101c1576101c1610109565b6101d5816101cf845461011f565b84610159565b6020601f82116001811461020957600083156101f15750848201515b600019600385901b1c1916600184901b1784556101a0565b600084815260208120601f198516915b828110156102395787850151825560209485019460019092019101610219565b50848210156102575786840151600019600387901b60f8161c191681555b50505050600190811b01905550565b612988806102756000396000f3fe6080604052600436106101e35760003560e01c80639036c05011610102578063c87b56dd11610095578063e985e9c511610064578063e985e9c51461066f578063eaf60b511461068f578063f2fde38b146106af578063f8b2cb4f146106cf57600080fd5b8063c87b56dd146105f9578063cda4beef14610619578063d082e38114610639578063e80d7fec1461064f57600080fd5b8063b1d8c3d6116100d1578063b1d8c3d614610579578063b88d4fde14610599578063b9a2de3a146105b9578063bd94b005146105d957600080fd5b80639036c0501461051157806395d89b41146105315780639979ef4514610546578063a22cb4651461055957600080fd5b80634c25ab421161017a57806364fc0ff61161014957806364fc0ff61461049057806370a08231146104b0578063715018a6146104de5780638da5cb5b146104f357600080fd5b80634c25ab421461037757806351ed8288146103be578063571a26a0146103d15780636352211e1461047057600080fd5b806323b872dd116101b657806323b872dd1461029957806342842e0e146102b957806348c32093146102d9578063495410151461034757600080fd5b806301ffc9a7146101e857806306fdde031461021d578063081812fc1461023f578063095ea7b314610277575b600080fd5b3480156101f457600080fd5b506102086102033660046122a4565b6106ef565b60405190151581526020015b60405180910390f35b34801561022957600080fd5b5061023261071a565b6040516102149190612311565b34801561024b57600080fd5b5061025f61025a366004612324565b6107ac565b6040516001600160a01b039091168152602001610214565b34801561028357600080fd5b50610297610292366004612359565b6107d5565b005b3480156102a557600080fd5b506102976102b4366004612383565b6107e4565b3480156102c557600080fd5b506102976102d4366004612383565b610874565b3480156102e557600080fd5b506103226102f4366004612324565b600b60205260009081526040902080546001909101546001600160a01b03811690600160a01b900460ff1683565b604080519384526001600160a01b039092166020840152151590820152606001610214565b34801561035357600080fd5b50610367610362366004612324565b610894565b60405161021494939291906123d6565b34801561038357600080fd5b5061039761039236600461243c565b6109da565b604080516001600160a01b0390941684526020840192909252151590820152606001610214565b6102976103cc366004612324565b610a29565b3480156103dd57600080fd5b506104326103ec366004612324565b600c6020526000908152604090208054600182015460028301546003840154600490940154929391926001600160a01b039182169291811690600160a01b900460ff1686565b6040805196875260208701959095526001600160a01b03938416948601949094526060850191909152166080830152151560a082015260c001610214565b34801561047c57600080fd5b5061025f61048b366004612324565b610bdd565b34801561049c57600080fd5b506102976104ab36600461243c565b610be8565b3480156104bc57600080fd5b506104d06104cb36600461245e565b610cbe565b604051908152602001610214565b3480156104ea57600080fd5b50610297610d06565b3480156104ff57600080fd5b506008546001600160a01b031661025f565b34801561051d57600080fd5b5061029761052c366004612479565b610d1a565b34801561053d57600080fd5b50610232610d9b565b610297610554366004612324565b610daa565b34801561056557600080fd5b506102976105743660046124a5565b610ff8565b34801561058557600080fd5b50610297610594366004612591565b611003565b3480156105a557600080fd5b506102976105b436600461263c565b61112a565b3480156105c557600080fd5b506102976105d4366004612324565b611142565b3480156105e557600080fd5b506102976105f4366004612324565b611321565b34801561060557600080fd5b50610232610614366004612324565b6113b7565b34801561062557600080fd5b506102976106343660046126b8565b6114c8565b34801561064557600080fd5b506104d060095481565b34801561065b57600080fd5b5061029761066a36600461243c565b611647565b34801561067b57600080fd5b5061020861068a3660046126e4565b61176e565b34801561069b57600080fd5b506102976106aa36600461243c565b61179c565b3480156106bb57600080fd5b506102976106ca36600461245e565b611909565b3480156106db57600080fd5b506104d06106ea36600461245e565b611944565b60006001600160e01b03198216632483248360e11b148061071457506107148261194f565b92915050565b6060600080546107299061270e565b80601f01602080910402602001604051908101604052809291908181526020018280546107559061270e565b80156107a25780601f10610777576101008083540402835291602001916107a2565b820191906000526020600020905b81548152906001019060200180831161078557829003601f168201915b5050505050905090565b60006107b78261199f565b506000828152600460205260409020546001600160a01b0316610714565b6107e08282336119d8565b5050565b6001600160a01b03821661081357604051633250574960e11b8152600060048201526024015b60405180910390fd5b60006108208383336119e5565b9050836001600160a01b0316816001600160a01b03161461086e576040516364283d7b60e01b81526001600160a01b038086166004830152602482018490528216604482015260640161080a565b50505050565b61088f8383836040518060200160405280600081525061112a565b505050565b600a602052600090815260409020805481906108af9061270e565b80601f01602080910402602001604051908101604052809291908181526020018280546108db9061270e565b80156109285780601f106108fd57610100808354040283529160200191610928565b820191906000526020600020905b81548152906001019060200180831161090b57829003601f168201915b50505050509080600101805461093d9061270e565b80601f01602080910402602001604051908101604052809291908181526020018280546109699061270e565b80156109b65780601f1061098b576101008083540402835291602001916109b6565b820191906000526020600020905b81548152906001019060200180831161099957829003601f168201915b5050506002909301549192505060ff8116906001600160a01b036101009091041684565b600d60205281600052604060002081815481106109f657600080fd5b60009182526020909120600390910201805460018201546002909201546001600160a01b03909116935090915060ff1683565b610a31611ade565b6000818152600b602052604090206001810154600160a01b900460ff16610a895760405162461bcd60e51b815260206004820152600c60248201526b4e6f7420666f722073616c6560a01b604482015260640161080a565b80543414610acb5760405162461bcd60e51b815260206004820152600f60248201526e496e636f727265637420707269636560881b604482015260640161080a565b60018101805460ff60a01b1981169091556040516000916001600160a01b03169034908381818185875af1925050503d8060008114610b26576040519150601f19603f3d011682016040523d82523d6000602084013e610b2b565b606091505b5050905080610b7c5760405162461bcd60e51b815260206004820152601860248201527f5061796d656e7420746f2073656c6c6572206661696c65640000000000000000604482015260640161080a565b6001820154610b95906001600160a01b03163385611b08565b604080518481523360208201527fbebca6653c629a651174dc2ea9b9f7ef506290dee89fe1a6087eb1e12c06d43091015b60405180910390a15050610bda6001600755565b50565b60006107148261199f565b33610bf283610bdd565b6001600160a01b031603610c3f5760405162461bcd60e51b815260206004820152601460248201527313dddb995c8818d85b9b9bdd081c995c5d595cdd60621b604482015260640161080a565b6000918252600d602090815260408084208151606081018352338152808401948552600192810183815282548085018455928752939095209451600390910290940180546001600160a01b0319166001600160a01b03909516949094178455915191830191909155516002909101805460ff1916911515919091179055565b60006001600160a01b038216610cea576040516322718ad960e21b81526000600482015260240161080a565b506001600160a01b031660009081526003602052604090205490565b610d0e611bb8565b610d186000611be5565b565b33610d2483610bdd565b6001600160a01b031614610d4a5760405162461bcd60e51b815260040161080a90612748565b610d55338284611b08565b604080518381526001600160a01b03831660208201527f20665ee57a5e13af162123968d777ccebe86531a21e53d08afc78138a950192d91015b60405180910390a15050565b6060600180546107299061270e565b610db2611ade565b6000818152600c602052604090206004810154600160a01b900460ff16610e0e5760405162461bcd60e51b815260206004820152601060248201526f41756374696f6e20696e61637469766560801b604482015260640161080a565b80600301544210610e515760405162461bcd60e51b815260206004820152600d60248201526c105d58dd1a5bdb88195b991959609a1b604482015260640161080a565b60048101546001600160a01b03163303610ea05760405162461bcd60e51b815260206004820152601060248201526f13dddb995c8818d85b9b9bdd08189a5960821b604482015260640161080a565b80600101543411610ee15760405162461bcd60e51b815260206004820152600b60248201526a42696420746f6f206c6f7760a81b604482015260640161080a565b60028101546001600160a01b031615610f8f57600281015460018201546040516000926001600160a01b031691908381818185875af1925050503d8060008114610f47576040519150601f19603f3d011682016040523d82523d6000602084013e610f4c565b606091505b5050905080610f8d5760405162461bcd60e51b815260206004820152600d60248201526c1499599d5b990819985a5b1959609a1b604482015260640161080a565b505b34600182018190556002820180546001600160a01b031916331790556040517f0fc69407039e8ba8cdd517e2a4cae9dd19697b0a500ff37a2425c59ebc649b3191610fe591859190918252602082015260400190565b60405180910390a150610bda6001600755565b6107e0338383611c37565b6009546110103382611cd6565b61101a8186611cf0565b6040518060800160405280858152602001848152602001836004811115611043576110436123c0565b8152336020918201526000838152600a909152604090208151819061106890826127b2565b506020820151600182019061107d90826127b2565b50604082015160028201805460ff191660018360048111156110a1576110a16123c0565b021790555060609190910151600290910180546001600160a01b0390921661010002610100600160a81b0319909216919091179055600980549060006110e683612887565b9091555050604080518281523360208201527f0176f203df400d7bd5f1b1c9ef36c16709bf3b5d9fd35f000a6bae32393f66c3910160405180910390a15050505050565b6111358484846107e4565b61086e3385858585611d39565b61114a611ade565b6000818152600c602052604090206004810154600160a01b900460ff166111a65760405162461bcd60e51b815260206004820152601060248201526f41756374696f6e20696e61637469766560801b604482015260640161080a565b80600301544210156111ee5760405162461bcd60e51b8152602060048201526011602482015270105d58dd1a5bdb881b9bdd08195b991959607a1b604482015260640161080a565b60048101805460ff60a01b1916905560028101546001600160a01b03161561131657600481015460018201546040516000926001600160a01b031691908381818185875af1925050503d8060008114611263576040519150601f19603f3d011682016040523d82523d6000602084013e611268565b606091505b50509050806112b15760405162461bcd60e51b8152602060048201526015602482015274105d58dd1a5bdb881c185e5bdd5d0819985a5b1959605a1b604482015260640161080a565b600482015460028301546112d2916001600160a01b03908116911685611b08565b6002820154604080518581526001600160a01b0390921660208301527fc07789fac136048b605fef8e227ab89b2e33d8afc9ab4817d374197cd81443d69101610bc6565b50610bda6001600755565b6000818152600b6020526040902060018101546001600160a01b031633146113785760405162461bcd60e51b815260206004820152600a6024820152692737ba1039b2b63632b960b11b604482015260640161080a565b60018101805460ff60a01b191690556040518281527f2c56893f6f6026d19bd17b7d05c9f15c522de1ae2b1c3a825f91a73c799321f290602001610d8f565b60606113c28261199f565b50600082815260066020526040812080546113dc9061270e565b80601f01602080910402602001604051908101604052809291908181526020018280546114089061270e565b80156114555780601f1061142a57610100808354040283529160200191611455565b820191906000526020600020905b81548152906001019060200180831161143857829003601f168201915b50505050509050600061147360408051602081019091526000815290565b90508051600003611485575092915050565b8151156114b757808260405160200161149f9291906128a0565b60405160208183030381529060405292505050919050565b6114c084611e64565b949350505050565b336114d284610bdd565b6001600160a01b0316146114f85760405162461bcd60e51b815260040161080a90612748565b6000811161153b5760405162461bcd60e51b815260206004820152601060248201526f24b73b30b634b210323ab930ba34b7b760811b604482015260640161080a565b6040518060c001604052808381526020016000815260200160006001600160a01b03168152602001824261156f91906128cf565b815233602080830191909152600160409283018190526000878152600c8352839020845181559184015190820155908201516002820180546001600160a01b0319166001600160a01b039283161790556060830151600383015560808301516004909201805460a090940151929091166001600160a81b031990931692909217600160a01b911515919091021790557fe00a2da3a0f34a566402a244ab7ec63f8ab7472591cb18edf3269aa00461a4108361162a83426128cf565b6040805192835260208301919091520160405180910390a1505050565b3361165183610bdd565b6001600160a01b0316146116975760405162461bcd60e51b815260206004820152600d60248201526c2737ba1027232a1037bbb732b960991b604482015260640161080a565b600081116116db5760405162461bcd60e51b815260206004820152601160248201527005072696365206d757374206265203e203607c1b604482015260640161080a565b6040805160608101825282815233602080830191825260018385018181526000888152600b84528690209451855592519301805492511515600160a01b026001600160a81b03199093166001600160a01b03909416939093179190911790915581518481529081018390527f27aebf2e0e5cf25f00bd3797d26b69f66ac7ccb85a55702906e672e9cb7d1c259101610d8f565b6001600160a01b03918216600090815260056020908152604080832093909416825291909152205460ff1690565b6117a4611ade565b6000828152600d602052604081208054839081106117c4576117c46128e2565b60009182526020909120600390910201600281015490915060ff1661181e5760405162461bcd60e51b815260206004820152601060248201526f5265717565737420696e61637469766560801b604482015260640161080a565b3361182884610bdd565b6001600160a01b03161461184e5760405162461bcd60e51b815260040161080a90612748565b60028101805460ff19169055600181015460405160009133918381818185875af1925050503d806000811461189f576040519150601f19603f3d011682016040523d82523d6000602084013e6118a4565b606091505b50509050806118e65760405162461bcd60e51b815260206004820152600e60248201526d14185e5b595b9d0819985a5b195960921b604482015260640161080a565b81546118fd9033906001600160a01b031686611b08565b50506107e06001600755565b611911611bb8565b6001600160a01b03811661193b57604051631e4fbdf760e01b81526000600482015260240161080a565b610bda81611be5565b600061071482610cbe565b60006001600160e01b031982166380ac58cd60e01b148061198057506001600160e01b03198216635b5e139f60e01b145b8061071457506301ffc9a760e01b6001600160e01b0319831614610714565b6000818152600260205260408120546001600160a01b03168061071457604051637e27328960e01b81526004810184905260240161080a565b61088f8383836001611ed9565b6000828152600260205260408120546001600160a01b0390811690831615611a1257611a12818486611fdf565b6001600160a01b03811615611a5057611a2f600085600080611ed9565b6001600160a01b038116600090815260036020526040902080546000190190555b6001600160a01b03851615611a7f576001600160a01b0385166000908152600360205260409020805460010190555b60008481526002602052604080822080546001600160a01b0319166001600160a01b0389811691821790925591518793918516917fddf252ad1be2c89b69c2b068fc378daa952ba7f163c4a11628f55a4df523b3ef91a4949350505050565b600260075403611b0157604051633ee5aeb560e01b815260040160405180910390fd5b6002600755565b6001600160a01b038216611b3257604051633250574960e11b81526000600482015260240161080a565b6000611b40838360006119e5565b90506001600160a01b038116611b6c57604051637e27328960e01b81526004810183905260240161080a565b836001600160a01b0316816001600160a01b03161461086e576040516364283d7b60e01b81526001600160a01b038086166004830152602482018490528216604482015260640161080a565b6008546001600160a01b03163314610d185760405163118cdaa760e01b815233600482015260240161080a565b600880546001600160a01b038381166001600160a01b0319831681179093556040519116919082907f8be0079c531659141344cd1fd0a4f28419497f9722a3daafe3b4186f6b6457e090600090a35050565b6001600160a01b038216611c6957604051630b61174360e31b81526001600160a01b038316600482015260240161080a565b6001600160a01b03838116600081815260056020908152604080832094871680845294825291829020805460ff191686151590811790915591519182527f17307eab39ab6107e8899845ad3d59bd9653f200f220920489ca2b5937696c31910160405180910390a3505050565b6107e0828260405180602001604052806000815250612043565b6000828152600660205260409020611d0882826127b2565b506040518281527ff8e1a15aba9398e019f0b49df1a4fde98ee17ae345cb5f6b5e2c27f5033e8ce790602001610d8f565b6001600160a01b0383163b15611e5d57604051630a85bd0160e11b81526001600160a01b0384169063150b7a0290611d7b9088908890879087906004016128f8565b6020604051808303816000875af1925050508015611db6575060408051601f3d908101601f19168201909252611db391810190612935565b60015b611e1f573d808015611de4576040519150601f19603f3d011682016040523d82523d6000602084013e611de9565b606091505b508051600003611e1757604051633250574960e11b81526001600160a01b038516600482015260240161080a565b805160208201fd5b6001600160e01b03198116630a85bd0160e11b14611e5b57604051633250574960e11b81526001600160a01b038516600482015260240161080a565b505b5050505050565b6060611e6f8261199f565b506000611e8760408051602081019091526000815290565b90506000815111611ea75760405180602001604052806000815250611ed2565b80611eb18461205b565b604051602001611ec29291906128a0565b6040516020818303038152906040525b9392505050565b8080611eed57506001600160a01b03821615155b15611faf576000611efd8461199f565b90506001600160a01b03831615801590611f295750826001600160a01b0316816001600160a01b031614155b8015611f3c5750611f3a818461176e565b155b15611f655760405163a9fbf51f60e01b81526001600160a01b038416600482015260240161080a565b8115611fad5783856001600160a01b0316826001600160a01b03167f8c5be1e5ebec7d5bd14f71427d1e84f3dd0314c0f7b2291e5b200ac8c7c3b92560405160405180910390a45b505b5050600090815260046020526040902080546001600160a01b0319166001600160a01b0392909216919091179055565b611fea8383836120ee565b61088f576001600160a01b03831661201857604051637e27328960e01b81526004810182905260240161080a565b60405163177e802f60e01b81526001600160a01b03831660048201526024810182905260440161080a565b61204d8383612151565b61088f336000858585611d39565b60606000612068836121b6565b600101905060008167ffffffffffffffff811115612088576120886124e1565b6040519080825280601f01601f1916602001820160405280156120b2576020820181803683370190505b5090508181016020015b600019016f181899199a1a9b1b9c1cb0b131b232b360811b600a86061a8153600a85049450846120bc57509392505050565b60006001600160a01b038316158015906114c05750826001600160a01b0316846001600160a01b031614806121285750612128848461176e565b806114c05750506000908152600460205260409020546001600160a01b03908116911614919050565b6001600160a01b03821661217b57604051633250574960e11b81526000600482015260240161080a565b6000612189838360006119e5565b90506001600160a01b0381161561088f576040516339e3563760e11b81526000600482015260240161080a565b60008072184f03e93ff9f4daa797ed6e38ed64bf6a1f0160401b83106121f55772184f03e93ff9f4daa797ed6e38ed64bf6a1f0160401b830492506040015b6d04ee2d6d415b85acef81000000008310612221576d04ee2d6d415b85acef8100000000830492506020015b662386f26fc10000831061223f57662386f26fc10000830492506010015b6305f5e1008310612257576305f5e100830492506008015b612710831061226b57612710830492506004015b6064831061227d576064830492506002015b600a83106107145760010192915050565b6001600160e01b031981168114610bda57600080fd5b6000602082840312156122b657600080fd5b8135611ed28161228e565b60005b838110156122dc5781810151838201526020016122c4565b50506000910152565b600081518084526122fd8160208601602086016122c1565b601f01601f19169290920160200192915050565b602081526000611ed260208301846122e5565b60006020828403121561233657600080fd5b5035919050565b80356001600160a01b038116811461235457600080fd5b919050565b6000806040838503121561236c57600080fd5b6123758361233d565b946020939093013593505050565b60008060006060848603121561239857600080fd5b6123a18461233d565b92506123af6020850161233d565b929592945050506040919091013590565b634e487b7160e01b600052602160045260246000fd5b6080815260006123e960808301876122e5565b82810360208401526123fb81876122e5565b9150506005841061241c57634e487b7160e01b600052602160045260246000fd5b60408201939093526001600160a01b039190911660609091015292915050565b6000806040838503121561244f57600080fd5b50508035926020909101359150565b60006020828403121561247057600080fd5b611ed28261233d565b6000806040838503121561248c57600080fd5b8235915061249c6020840161233d565b90509250929050565b600080604083850312156124b857600080fd5b6124c18361233d565b9150602083013580151581146124d657600080fd5b809150509250929050565b634e487b7160e01b600052604160045260246000fd5b60008067ffffffffffffffff841115612512576125126124e1565b50604051601f19601f85018116603f0116810181811067ffffffffffffffff82111715612541576125416124e1565b60405283815290508082840185101561255957600080fd5b83836020830137600060208583010152509392505050565b600082601f83011261258257600080fd5b611ed2838335602085016124f7565b600080600080608085870312156125a757600080fd5b843567ffffffffffffffff8111156125be57600080fd5b6125ca87828801612571565b945050602085013567ffffffffffffffff8111156125e757600080fd5b6125f387828801612571565b935050604085013567ffffffffffffffff81111561261057600080fd5b61261c87828801612571565b92505060608501356005811061263157600080fd5b939692955090935050565b6000806000806080858703121561265257600080fd5b61265b8561233d565b93506126696020860161233d565b925060408501359150606085013567ffffffffffffffff81111561268c57600080fd5b8501601f8101871361269d57600080fd5b6126ac878235602084016124f7565b91505092959194509250565b6000806000606084860312156126cd57600080fd5b505081359360208301359350604090920135919050565b600080604083850312156126f757600080fd5b6127008361233d565b915061249c6020840161233d565b600181811c9082168061272257607f821691505b60208210810361274257634e487b7160e01b600052602260045260246000fd5b50919050565b6020808252600990820152682737ba1037bbb732b960b91b604082015260600190565b601f82111561088f57806000526020600020601f840160051c810160208510156127925750805b601f840160051c820191505b81811015611e5d576000815560010161279e565b815167ffffffffffffffff8111156127cc576127cc6124e1565b6127e0816127da845461270e565b8461276b565b6020601f82116001811461281457600083156127fc5750848201515b600019600385901b1c1916600184901b178455611e5d565b600084815260208120601f198516915b828110156128445787850151825560209485019460019092019101612824565b50848210156128625786840151600019600387901b60f8161c191681555b50505050600190811b01905550565b634e487b7160e01b600052601160045260246000fd5b60006001820161289957612899612871565b5060010190565b600083516128b28184602088016122c1565b8351908301906128c68183602088016122c1565b01949350505050565b8082018082111561071457610714612871565b634e487b7160e01b600052603260045260246000fd5b6001600160a01b038581168252841660208201526040810183905260806060820181905260009061292b908301846122e5565b9695505050505050565b60006020828403121561294757600080fd5b8151611ed28161228e56fea2646970667358221220d687b2d38cf6b151e4642d9f26defc7654742af109f11b5ec846d78c6993052d64736f6c634300081c0033",
  "linkReferences": {},
  "deployedLinkReferences": {}
}