{
  "_format": "hh-sol-artifact-1",
  "contractName": "MythicNFTMarketplace",
  "sourceName": "contracts/MythicNFTMarketplace.sol",
  "abi": [
    {
      "inputs": [],
      "stateMutability": "nonpayable",
      "type": "constructor"
    },
    {
      "inputs": [
        {
          "internalType": "address",
          "name": "sender",
          "type": "address"
        },
        {
          "internalType": "uint256",
          "name": "tokenId",
          "type": "uint256"
        },
        {
          "internalType": "address",
          "name": "owner",
          "type": "address"
        }
      ],
      "name": "ERC721IncorrectOwner",
      "type": "error"
    },
    {
      "inputs": [
        {
          "internalType": "address",
          "name": "operator",
          "type": "address"
        },
        {
          "internalType": "uint256",
          "name": "tokenId",
          "type": "uint256"
        }
      ],
      "name": "ERC721InsufficientApproval",
      "type": "error"
    },
    {
      "inputs": [
        {
          "internalType": "address",
          "name": "approver",
          "type": "address"
        }
      ],
      "name": "ERC721InvalidApprover",
      "type": "error"
    },
    {
      "inputs": [
        {
          "internalType": "address",
          "name": "operator",
          "type": "address"
        }
      ],
      "name": "ERC721InvalidOperator",
      "type": "error"
    },
    {
      "inputs": [
        {
          "internalType": "address",
          "name": "owner",
          "type": "address"
        }
      ],
      "name": "ERC721InvalidOwner",
      "type": "error"
    },
    {
      "inputs": [
        {
          "internalType": "address",
          "name": "receiver",
          "type": "address"
        }
      ],
      "name": "ERC721InvalidReceiver",
      "type": "error"
    },
    {
      "inputs": [
        {
          "internalType": "address",
          "name": "sender",
          "type": "address"
        }
      ],
      "name": "ERC721InvalidSender",
      "type": "error"
    },
    {
      "inputs": [
        {
          "internalType": "uint256",
          "name": "tokenId",
          "type": "uint256"
        }
      ],
      "name": "ERC721NonexistentToken",
      "type": "error"
    },
    {
      "inputs": [
        {
          "internalType": "address",
          "name": "owner",
          "type": "address"
        }
      ],
      "name": "OwnableInvalidOwner",
      "type": "error"
    },
    {
      "inputs": [
        {
          "internalType": "address",
          "name": "account",
          "type": "address"
        }
      ],
      "name": "OwnableUnauthorizedAccount",
      "type": "error"
    },
    {
      "inputs": [],
      "name": "ReentrancyGuardReentrantCall",
      "type": "error"
    },
    {
      "anonymous": false,
      "inputs": [
        {
          "indexed": true,
          "internalType": "address",
          "name": "owner",
          "type": "address"
        },
        {
          "indexed": true,
          "internalType": "address",
          "name": "approved",
          "type": "address"
        },
        {
          "indexed": true,
          "internalType": "uint256",
          "name": "tokenId",
          "type": "uint256"
        }
      ],
      "name": "Approval",
      "type": "event"
    },
    {
      "anonymous": false,
      "inputs": [
        {
          "indexed": true,
          "internalType": "address",
          "name": "owner",
          "type": "address"
        },
        {
          "indexed": true,
          "internalType": "address",
          "name": "operator",
          "type": "address"
        },
        {
          "indexed": false,
          "internalType": "bool",
          "name": "approved",
          "type": "bool"
        }
      ],
      "name": "ApprovalForAll",
      "type": "event"
    },
    {
      "anonymous": false,
      "inputs": [
        {
          "indexed": false,
          "internalType": "uint256",
          "name": "tokenId",
          "type": "uint256"
        },
        {
          "indexed": false,
          "internalType": "uint256",
          "name": "endTime",
          "type": "uint256"
        }
      ],
      "name": "AuctionCreated",
      "type": "event"
    },
    {
      "anonymous": false,
      "inputs": [
        {
          "indexed": false,
          "internalType": "uint256",
          "name": "tokenId",
          "type": "uint256"
        },
        {
          "indexed": false,
          "internalType": "address",
          "name": "winner",
          "type": "address"
        }
      ],
      "name": "AuctionEnded",
      "type": "event"
    },
    {
      "anonymous": false,
      "inputs": [
        {
          "indexed": false,
          "internalType": "uint256",
          "name": "_fromTokenId",
          "type": "uint256"
        },
        {
          "indexed": false,
          "internalType": "uint256",
          "name": "_toTokenId",
          "type": "uint256"
        }
      ],
      "name": "BatchMetadataUpdate",
      "type": "event"
    },
    {
      "anonymous": false,
      "inputs": [
        {
          "indexed": false,
          "internalType": "uint256",
          "name": "tokenId",
          "type": "uint256"
        },
        {
          "indexed": false,
          "internalType": "uint256",
          "name": "amount",
          "type": "uint256"
        }
      ],
      "name": "BidPlaced",
      "type": "event"
    },
    {
      "anonymous": false,
      "inputs": [
        {
          "indexed": false,
          "internalType": "uint256",
          "name": "tokenId",
          "type": "uint256"
        },
        {
          "indexed": false,
          "internalType": "uint256",
          "name": "price",
          "type": "uint256"
        }
      ],
      "name": "ListedForSale",
      "type": "event"
    },
    {
      "anonymous": false,
      "inputs": [
        {
          "indexed": false,
          "internalType": "uint256",
          "name": "_tokenId",
          "type": "uint256"
        }
      ],
      "name": "MetadataUpdate",
      "type": "event"
    },
    {
      "anonymous": false,
      "inputs": [
        {
          "indexed": false,
          "internalType": "uint256",
          "name": "tokenId",
          "type": "uint256"
        },
        {
          "indexed": false,
          "internalType": "address",
          "name": "creator",
          "type": "address"
        }
      ],
      "name": "NFTMinted",
      "type": "event"
    },
    {
      "anonymous": false,
      "inputs": [
        {
          "indexed": false,
          "internalType": "uint256",
          "name": "tokenId",
          "type": "uint256"
        },
        {
          "indexed": false,
          "internalType": "address",
          "name": "buyer",
          "type": "address"
        }
      ],
      "name": "NFTPurchased",
      "type": "event"
    },
    {
      "anonymous": false,
      "inputs": [
        {
          "indexed": false,
          "internalType": "uint256",
          "name": "tokenId",
          "type": "uint256"
        },
        {
          "indexed": false,
          "internalType": "address",
          "name": "to",
          "type": "address"
        }
      ],
      "name": "NFTTransferred",
      "type": "event"
    },
    {
      "anonymous": false,
      "inputs": [
        {
          "indexed": true,
          "internalType": "address",
          "name": "previousOwner",
          "type": "address"
        },
        {
          "indexed": true,
          "internalType": "address",
          "name": "newOwner",
          "type": "address"
        }
      ],
      "name": "OwnershipTransferred",
      "type": "event"
    },
    {
      "anonymous": false,
      "inputs": [
        {
          "indexed": false,
          "internalType": "uint256",
          "name": "tokenId",
          "type": "uint256"
        }
      ],
      "name": "SaleCancelled",
      "type": "event"
    },
    {
      "anonymous": false,
      "inputs": [
        {
          "indexed": true,
          "internalType": "address",
          "name": "from",
          "type": "address"
        },
        {
          "indexed": true,
          "internalType": "address",
          "name": "to",
          "type": "address"
        },
        {
          "indexed": true,
          "internalType": "uint256",
          "name": "tokenId",
          "type": "uint256"
        }
      ],
      "name": "Transfer",
      "type": "event"
    },
    {
      "inputs": [
        {
          "internalType": "address",
          "name": "to",
          "type": "address"
        },
        {
          "internalType": "uint256",
          "name": "tokenId",
          "type": "uint256"
        }
      ],
      "name": "approve",
      "outputs": [],
      "stateMutability": "nonpayable",
      "type": "function"
    },
    {
      "inputs": [
        {
          "internalType": "uint256",
          "name": "tokenId",
          "type": "uint256"
        },
        {
          "internalType": "uint256",
          "name": "index",
          "type": "uint256"
        }
      ],
      "name": "approvePurchaseRequest",
      "outputs": [],
      "stateMutability": "nonpayable",
      "type": "function"
    },
    {
      "inputs": [
        {
          "internalType": "uint256",
          "name": "",
          "type": "uint256"
        }
      ],
      "name": "auctions",
      "outputs": [
        {
          "internalType": "uint256",
          "name": "startPrice",
          "type": "uint256"
        },
        {
          "internalType": "uint256",
          "name": "highestBid",
          "type": "uint256"
        },
        {
          "internalType": "address",
          "name": "highestBidder",
          "type": "address"
        },
        {
          "internalType": "uint256",
          "name": "endTime",
          "type": "uint256"
        },
        {
          "internalType": "address",
          "name": "seller",
          "type": "address"
        },
        {
          "internalType": "bool",
          "name": "active",
          "type": "bool"
        }
      ],
      "stateMutability": "view",
      "type": "function"
    },
    {
      "inputs": [
        {
          "internalType": "address",
          "name": "owner",
          "type": "address"
        }
      ],
      "name": "balanceOf",
      "outputs": [
        {
          "internalType": "uint256",
          "name": "",
          "type": "uint256"
        }
      ],
      "stateMutability": "view",
      "type": "function"
    },
    {
      "inputs": [
        {
          "internalType": "uint256",
          "name": "tokenId",
          "type": "uint256"
        }
      ],
      "name": "buyNFT",
      "outputs": [],
      "stateMutability": "payable",
      "type": "function"
    },
    {
      "inputs": [
        {
          "internalType": "uint256",
          "name": "tokenId",
          "type": "uint256"
        }
      ],
      "name": "cancelSale",
      "outputs": [],
      "stateMutability": "nonpayable",
      "type": "function"
    },
    {
      "inputs": [
        {
          "internalType": "uint256",
          "name": "tokenId",
          "type": "uint256"
        },
        {
          "internalType": "uint256",
          "name": "startPrice",
          "type": "uint256"
        },
        {
          "internalType": "uint256",
          "name": "duration",
          "type": "uint256"
        }
      ],
      "name": "createAuction",
      "outputs": [],
      "stateMutability": "nonpayable",
      "type": "function"
    },
    {
      "inputs": [
        {
          "internalType": "uint256",
          "name": "tokenId",
          "type": "uint256"
        }
      ],
      "name": "endAuction",
      "outputs": [],
      "stateMutability": "nonpayable",
      "type": "function"
    },
    {
      "inputs": [
        {
          "internalType": "uint256",
          "name": "tokenId",
          "type": "uint256"
        }
      ],
      "name": "getApproved",
      "outputs": [
        {
          "internalType": "address",
          "name": "",
          "type": "address"
        }
      ],
      "stateMutability": "view",
      "type": "function"
    },
    {
      "inputs": [
        {
          "internalType": "address",
          "name": "owner",
          "type": "address"
        },
        {
          "internalType": "address",
          "name": "operator",
          "type": "address"
        }
      ],
      "name": "isApprovedForAll",
      "outputs": [
        {
          "internalType": "bool",
          "name": "",
          "type": "bool"
        }
      ],
      "stateMutability": "view",
      "type": "function"
    },
    {
      "inputs": [
        {
          "internalType": "uint256",
          "name": "tokenId",
          "type": "uint256"
        },
        {
          "internalType": "uint256",
          "name": "price",
          "type": "uint256"
        }
      ],
      "name": "listForSale",
      "outputs": [],
      "stateMutability": "nonpayable",
      "type": "function"
    },
    {
      "inputs": [
        {
          "internalType": "uint256",
          "name": "",
          "type": "uint256"
        }
      ],
      "name": "marketplaceListings",
      "outputs": [
        {
          "internalType": "uint256",
          "name": "price",
          "type": "uint256"
        },
        {
          "internalType": "address",
          "name": "seller",
          "type": "address"
        },
        {
          "internalType": "bool",
          "name": "active",
          "type": "bool"
        }
      ],
      "stateMutability": "view",
      "type": "function"
    },
    {
      "inputs": [
        {
          "internalType": "string",
          "name": "tokenURI",
          "type": "string"
        },
        {
          "internalType": "string",
          "name": "name",
          "type": "string"
        },
        {
          "internalType": "string",
          "name": "description",
          "type": "string"
        },
        {
          "internalType": "enum MythicNFTMarketplace.NFTType",
          "name": "nftType",
          "type": "uint8"
        }
      ],
      "name": "mintNFT",
      "outputs": [],
      "stateMutability": "nonpayable",
      "type": "function"
    },
    {
      "inputs": [],
      "name": "name",
      "outputs": [
        {
          "internalType": "string",
          "name": "",
          "type": "string"
        }
      ],
      "stateMutability": "view",
      "type": "function"
    },
    {
      "inputs": [
        {
          "internalType": "uint256",
          "name": "",
          "type": "uint256"
        }
      ],
      "name": "nftMetadata",
      "outputs": [
        {
          "internalType": "string",
          "name": "name",
          "type": "string"
        },
        {
          "internalType": "string",
          "name": "description",
          "type": "string"
        },
        {
          "internalType": "enum MythicNFTMarketplace.NFTType",
          "name": "nftType",
          "type": "uint8"
        },
        {
          "internalType": "address",
          "name": "creator",
          "type": "address"
        }
      ],
      "stateMutability": "view",
      "type": "function"
    },
    {
      "inputs": [],
      "name": "owner",
      "outputs": [
        {
          "internalType": "address",
          "name": "",
          "type": "address"
        }
      ],
      "stateMutability": "view",
      "type": "function"
    },
    {
      "inputs": [
        {
          "internalType": "uint256",
          "name": "tokenId",
          "type": "uint256"
        }
      ],
      "name": "ownerOf",
      "outputs": [
        {
          "internalType": "address",
          "name": "",
          "type": "address"
        }
      ],
      "stateMutability": "view",
      "type": "function"
    },
    {
      "inputs": [
        {
          "internalType": "uint256",
          "name": "tokenId",
          "type": "uint256"
        }
      ],
      "name": "placeBid",
      "outputs": [],
      "stateMutability": "payable",
      "type": "function"
    },
    {
      "inputs": [
        {
          "internalType": "uint256",
          "name": "",
          "type": "uint256"
        },
        {
          "internalType": "uint256",
          "name": "",
          "type": "uint256"
        }
      ],
      "name": "purchaseRequests",
      "outputs": [
        {
          "internalType": "address",
          "name": "buyer",
          "type": "address"
        },
        {
          "internalType": "uint256",
          "name": "offeredPrice",
          "type": "uint256"
        },
        {
          "internalType": "bool",
          "name": "active",
          "type": "bool"
        }
      ],
      "stateMutability": "view",
      "type": "function"
    },
    {
      "inputs": [],
      "name": "renounceOwnership",
      "outputs": [],
      "stateMutability": "nonpayable",
      "type": "function"
    },
    {
      "inputs": [
        {
          "internalType": "uint256",
          "name": "tokenId",
          "type": "uint256"
        },
        {
          "internalType": "uint256",
          "name": "price",
          "type": "uint256"
        }
      ],
      "name": "requestPurchase",
      "outputs": [],
      "stateMutability": "nonpayable",
      "type": "function"
    },
    {
      "inputs": [
        {
          "internalType": "address",
          "name": "from",
          "type": "address"
        },
        {
          "internalType": "address",
          "name": "to",
          "type": "address"
        },
        {
          "internalType": "uint256",
          "name": "tokenId",
          "type": "uint256"
        }
      ],
      "name": "safeTransferFrom",
      "outputs": [],
      "stateMutability": "nonpayable",
      "type": "function"
    },
    {
      "inputs": [
        {
          "internalType": "address",
          "name": "from",
          "type": "address"
        },
        {
          "internalType": "address",
          "name": "to",
          "type": "address"
        },
        {
          "internalType": "uint256",
          "name": "tokenId",
          "type": "uint256"
        },
        {
          "internalType": "bytes",
          "name": "data",
          "type": "bytes"
        }
      ],
      "name": "safeTransferFrom",
      "outputs": [],
      "stateMutability": "nonpayable",
      "type": "function"
    },
    {
      "inputs": [
        {
          "internalType": "address",
          "name": "operator",
          "type": "address"
        },
        {
          "internalType": "bool",
          "name": "approved",
          "type": "bool"
        }
      ],
      "name": "setApprovalForAll",
      "outputs": [],
      "stateMutability": "nonpayable",
      "type": "function"
    },
    {
      "inputs": [
        {
          "internalType": "bytes4",
          "name": "interfaceId",
          "type": "bytes4"
        }
      ],
      "name": "supportsInterface",
      "outputs": [
        {
          "internalType": "bool",
          "name": "",
          "type": "bool"
        }
      ],
      "stateMutability": "view",
      "type": "function"
    },
    {
      "inputs": [],
      "name": "symbol",
      "outputs": [
        {
          "internalType": "string",
          "name": "",
          "type": "string"
        }
      ],
      "stateMutability": "view",
      "type": "function"
    },
    {
      "inputs": [],
      "name": "tokenCounter",
      "outputs": [
        {
          "internalType": "uint256",
          "name": "",
          "type": "uint256"
        }
      ],
      "stateMutability": "view",
      "type": "function"
    },
    {
      "inputs": [
        {
          "internalType": "uint256",
          "name": "tokenId",
          "type": "uint256"
        }
      ],
      "name": "tokenURI",
      "outputs": [
        {
          "internalType": "string",
          "name": "",
          "type": "string"
        }
      ],
      "stateMutability": "view",
      "type": "function"
    },
    {
      "inputs": [
        {
          "internalType": "address",
          "name": "from",
          "type": "address"
        },
        {
          "internalType": "address",
          "name": "to",
          "type": "address"
        },
        {
          "internalType": "uint256",
          "name": "tokenId",
          "type": "uint256"
        }
      ],
      "name": "transferFrom",
      "outputs": [],
      "stateMutability": "nonpayable",
      "type": "function"
    },
    {
      "inputs": [
        {
          "internalType": "uint256",
          "name": "tokenId",
          "type": "uint256"
        },
        {
          "internalType": "address",
          "name": "to",
          "type": "address"
        }
      ],
      "name": "transferNFT",
      "outputs": [],
      "stateMutability": "nonpayable",
      "type": "function"
    },
    {
      "inputs": [
        {
          "internalType": "address",
          "name": "newOwner",
          "type": "address"
        }
      ],
      "name": "transferOwnership",
      "outputs": [],
      "stateMutability": "nonpayable",
      "type": "function"
    }
  ],
  "bytecode": "0x608060405234801561001057600080fd5b50336040518060400160405280600981526020017f4d79746869634e465400000000000000000000000000000000000000000000008152506040518060400160405280600481526020017f4d59544800000000000000000000000000000000000000000000000000000000815250816000908161008d919061044d565b50806001908161009d919061044d565b5050506001600781905550600073ffffffffffffffffffffffffffffffffffffffff168173ffffffffffffffffffffffffffffffffffffffff160361011a5760006040517f1e4fbdf70000000000000000000000000000000000000000000000000000000081526004016101119190610560565b60405180910390fd5b6101298161013760201b60201c565b50600160098190555061057b565b6000600860009054906101000a900473ffffffffffffffffffffffffffffffffffffffff16905081600860006101000a81548173ffffffffffffffffffffffffffffffffffffffff021916908373ffffffffffffffffffffffffffffffffffffffff1602179055508173ffffffffffffffffffffffffffffffffffffffff168173ffffffffffffffffffffffffffffffffffffffff167f8be0079c531659141344cd1fd0a4f28419497f9722a3daafe3b4186f6b6457e060405160405180910390a35050565b600081519050919050565b7f4e487b7100000000000000000000000000000000000000000000000000000000600052604160045260246000fd5b7f4e487b7100000000000000000000000000000000000000000000000000000000600052602260045260246000fd5b6000600282049050600182168061027e57607f821691505b60208210810361029157610290610237565b5b50919050565b60008190508160005260206000209050919050565b60006020601f8301049050919050565b600082821b905092915050565b6000600883026102f97fffffffffffffffffffffffffffffffffffffffffffffffffffffffffffffffff826102bc565b61030386836102bc565b95508019841693508086168417925050509392505050565b6000819050919050565b6000819050919050565b600061034a6103456103408461031b565b610325565b61031b565b9050919050565b6000819050919050565b6103648361032f565b61037861037082610351565b8484546102c9565b825550505050565b600090565b61038d610380565b61039881848461035b565b505050565b5b818110156103bc576103b1600082610385565b60018101905061039e565b5050565b601f821115610401576103d281610297565b6103db846102ac565b810160208510156103ea578190505b6103fe6103f6856102ac565b83018261039d565b50505b505050565b600082821c905092915050565b600061042460001984600802610406565b1980831691505092915050565b600061043d8383610413565b9150826002028217905092915050565b610456826101fd565b67ffffffffffffffff81111561046f5761046e610208565b5b6104798254610266565b6104848282856103c0565b600060209050601f8311600181146104b757600084156104a5578287015190505b6104af8582610431565b865550610517565b601f1984166104c586610297565b60005b828110156104ed578489015182556001820191506020850194506020810190506104c8565b8683101561050a5784890151610506601f891682610413565b8355505b6001600288020188555050505b505050505050565b600073ffffffffffffffffffffffffffffffffffffffff82169050919050565b600061054a8261051f565b9050919050565b61055a8161053f565b82525050565b60006020820190506105756000830184610551565b92915050565b614dcc8061058a6000396000f3fe6080604052600436106101d85760003560e01c80638da5cb5b11610102578063bd94b00511610095578063e80d7fec11610064578063e80d7fec146106cc578063e985e9c5146106f5578063eaf60b5114610732578063f2fde38b1461075b576101d8565b8063bd94b00514610612578063c87b56dd1461063b578063cda4beef14610678578063d082e381146106a1576101d8565b8063a22cb465116100d1578063a22cb4651461056e578063b1d8c3d614610597578063b88d4fde146105c0578063b9a2de3a146105e9576101d8565b80638da5cb5b146104d35780639036c050146104fe57806395d89b41146105275780639979ef4514610552576101d8565b8063495410151161017a5780636352211e116101495780636352211e1461041957806364fc0ff61461045657806370a082311461047f578063715018a6146104bc576101d8565b8063495410151461033c5780634c25ab421461037c57806351ed8288146103bb578063571a26a0146103d7576101d8565b8063095ea7b3116101b6578063095ea7b31461028257806323b872dd146102ab57806342842e0e146102d457806348c32093146102fd576101d8565b806301ffc9a7146101dd57806306fdde031461021a578063081812fc14610245575b600080fd5b3480156101e957600080fd5b5061020460048036038101906101ff9190613635565b610784565b604051610211919061367d565b60405180910390f35b34801561022657600080fd5b5061022f6107e5565b60405161023c9190613728565b60405180910390f35b34801561025157600080fd5b5061026c60048036038101906102679190613780565b610877565b60405161027991906137ee565b60405180910390f35b34801561028e57600080fd5b506102a960048036038101906102a49190613835565b610893565b005b3480156102b757600080fd5b506102d260048036038101906102cd9190613875565b6108a9565b005b3480156102e057600080fd5b506102fb60048036038101906102f69190613875565b6109ab565b005b34801561030957600080fd5b50610324600480360381019061031f9190613780565b6109cb565b604051610333939291906138d7565b60405180910390f35b34801561034857600080fd5b50610363600480360381019061035e9190613780565b610a22565b6040516103739493929190613985565b60405180910390f35b34801561038857600080fd5b506103a3600480360381019061039e91906139d8565b610b8f565b6040516103b293929190613a18565b60405180910390f35b6103d560048036038101906103d09190613780565b610c03565b005b3480156103e357600080fd5b506103fe60048036038101906103f99190613780565b610df7565b60405161041096959493929190613a4f565b60405180910390f35b34801561042557600080fd5b50610440600480360381019061043b9190613780565b610e80565b60405161044d91906137ee565b60405180910390f35b34801561046257600080fd5b5061047d600480360381019061047891906139d8565b610e92565b005b34801561048b57600080fd5b506104a660048036038101906104a19190613ab0565b610fef565b6040516104b39190613add565b60405180910390f35b3480156104c857600080fd5b506104d16110a9565b005b3480156104df57600080fd5b506104e86110bd565b6040516104f591906137ee565b60405180910390f35b34801561050a57600080fd5b5061052560048036038101906105209190613af8565b6110e7565b005b34801561053357600080fd5b5061053c6111a5565b6040516105499190613728565b60405180910390f35b61056c60048036038101906105679190613780565b611237565b005b34801561057a57600080fd5b5061059560048036038101906105909190613b64565b611584565b005b3480156105a357600080fd5b506105be60048036038101906105b99190613cfe565b61159a565b005b3480156105cc57600080fd5b506105e760048036038101906105e29190613e5a565b61170f565b005b3480156105f557600080fd5b50610610600480360381019061060b9190613780565b611734565b005b34801561061e57600080fd5b5061063960048036038101906106349190613780565b6119f2565b005b34801561064757600080fd5b50610662600480360381019061065d9190613780565b611b4f565b60405161066f9190613728565b60405180910390f35b34801561068457600080fd5b5061069f600480360381019061069a9190613edd565b611c62565b005b3480156106ad57600080fd5b506106b6611eaf565b6040516106c39190613add565b60405180910390f35b3480156106d857600080fd5b506106f360048036038101906106ee91906139d8565b611eb5565b005b34801561070157600080fd5b5061071c60048036038101906107179190613f30565b612071565b604051610729919061367d565b60405180910390f35b34801561073e57600080fd5b50610759600480360381019061075491906139d8565b612105565b005b34801561076757600080fd5b50610782600480360381019061077d9190613ab0565b612315565b005b6000634906490660e01b7bffffffffffffffffffffffffffffffffffffffffffffffffffffffff1916827bffffffffffffffffffffffffffffffffffffffffffffffffffffffff191614806107de57506107dd8261239b565b5b9050919050565b6060600080546107f490613f9f565b80601f016020809104026020016040519081016040528092919081815260200182805461082090613f9f565b801561086d5780601f106108425761010080835404028352916020019161086d565b820191906000526020600020905b81548152906001019060200180831161085057829003601f168201915b5050505050905090565b60006108828261247d565b5061088c82612505565b9050919050565b6108a582826108a0612542565b61254a565b5050565b600073ffffffffffffffffffffffffffffffffffffffff168273ffffffffffffffffffffffffffffffffffffffff160361091b5760006040517f64a0ae9200000000000000000000000000000000000000000000000000000000815260040161091291906137ee565b60405180910390fd5b600061092f838361092a612542565b61255c565b90508373ffffffffffffffffffffffffffffffffffffffff168173ffffffffffffffffffffffffffffffffffffffff16146109a5578382826040517f64283d7b00000000000000000000000000000000000000000000000000000000815260040161099c93929190613fd0565b60405180910390fd5b50505050565b6109c68383836040518060200160405280600081525061170f565b505050565b600b6020528060005260406000206000915090508060000154908060010160009054906101000a900473ffffffffffffffffffffffffffffffffffffffff16908060010160149054906101000a900460ff16905083565b600a602052806000526040600020600091509050806000018054610a4590613f9f565b80601f0160208091040260200160405190810160405280929190818152602001828054610a7190613f9f565b8015610abe5780601f10610a9357610100808354040283529160200191610abe565b820191906000526020600020905b815481529060010190602001808311610aa157829003601f168201915b505050505090806001018054610ad390613f9f565b80601f0160208091040260200160405190810160405280929190818152602001828054610aff90613f9f565b8015610b4c5780601f10610b2157610100808354040283529160200191610b4c565b820191906000526020600020905b815481529060010190602001808311610b2f57829003601f168201915b5050505050908060020160009054906101000a900460ff16908060020160019054906101000a900473ffffffffffffffffffffffffffffffffffffffff16905084565b600d6020528160005260406000208181548110610bab57600080fd5b9060005260206000209060030201600091509150508060000160009054906101000a900473ffffffffffffffffffffffffffffffffffffffff16908060010154908060020160009054906101000a900460ff16905083565b610c0b612776565b6000600b600083815260200190815260200160002090508060010160149054906101000a900460ff16610c73576040517f08c379a0000000000000000000000000000000000000000000000000000000008152600401610c6a90614053565b60405180910390fd5b80600001543414610cb9576040517f08c379a0000000000000000000000000000000000000000000000000000000008152600401610cb0906140bf565b60405180910390fd5b60008160010160146101000a81548160ff02191690831515021790555060008160010160009054906101000a900473ffffffffffffffffffffffffffffffffffffffff1673ffffffffffffffffffffffffffffffffffffffff1634604051610d2090614110565b60006040518083038185875af1925050503d8060008114610d5d576040519150601f19603f3d011682016040523d82523d6000602084013e610d62565b606091505b5050905080610da6576040517f08c379a0000000000000000000000000000000000000000000000000000000008152600401610d9d90614171565b60405180910390fd5b610db13033856127bc565b7fbebca6653c629a651174dc2ea9b9f7ef506290dee89fe1a6087eb1e12c06d4308333604051610de2929190614191565b60405180910390a15050610df4612929565b50565b600c6020528060005260406000206000915090508060000154908060010154908060020160009054906101000a900473ffffffffffffffffffffffffffffffffffffffff16908060030154908060040160009054906101000a900473ffffffffffffffffffffffffffffffffffffffff16908060040160149054906101000a900460ff16905086565b6000610e8b8261247d565b9050919050565b3373ffffffffffffffffffffffffffffffffffffffff16610eb283610e80565b73ffffffffffffffffffffffffffffffffffffffff1603610f08576040517f08c379a0000000000000000000000000000000000000000000000000000000008152600401610eff90614206565b60405180910390fd5b600d600083815260200190815260200160002060405180606001604052803373ffffffffffffffffffffffffffffffffffffffff16815260200183815260200160011515815250908060018154018082558091505060019003906000526020600020906003020160009091909190915060008201518160000160006101000a81548173ffffffffffffffffffffffffffffffffffffffff021916908373ffffffffffffffffffffffffffffffffffffffff1602179055506020820151816001015560408201518160020160006101000a81548160ff02191690831515021790555050505050565b60008073ffffffffffffffffffffffffffffffffffffffff168273ffffffffffffffffffffffffffffffffffffffff16036110625760006040517f89c62b6400000000000000000000000000000000000000000000000000000000815260040161105991906137ee565b60405180910390fd5b600360008373ffffffffffffffffffffffffffffffffffffffff1673ffffffffffffffffffffffffffffffffffffffff168152602001908152602001600020549050919050565b6110b1612933565b6110bb60006129ba565b565b6000600860009054906101000a900473ffffffffffffffffffffffffffffffffffffffff16905090565b3373ffffffffffffffffffffffffffffffffffffffff1661110783610e80565b73ffffffffffffffffffffffffffffffffffffffff161461115d576040517f08c379a000000000000000000000000000000000000000000000000000000000815260040161115490614272565b60405180910390fd5b6111683382846127bc565b7f20665ee57a5e13af162123968d777ccebe86531a21e53d08afc78138a950192d8282604051611199929190614191565b60405180910390a15050565b6060600180546111b490613f9f565b80601f01602080910402602001604051908101604052809291908181526020018280546111e090613f9f565b801561122d5780601f106112025761010080835404028352916020019161122d565b820191906000526020600020905b81548152906001019060200180831161121057829003601f168201915b5050505050905090565b61123f612776565b6000600c600083815260200190815260200160002090508060040160149054906101000a900460ff166112a7576040517f08c379a000000000000000000000000000000000000000000000000000000000815260040161129e906142de565b60405180910390fd5b806003015442106112ed576040517f08c379a00000000000000000000000000000000000000000000000000000000081526004016112e49061434a565b60405180910390fd5b8060040160009054906101000a900473ffffffffffffffffffffffffffffffffffffffff1673ffffffffffffffffffffffffffffffffffffffff163373ffffffffffffffffffffffffffffffffffffffff160361137f576040517f08c379a0000000000000000000000000000000000000000000000000000000008152600401611376906143b6565b60405180910390fd5b806001015434116113c5576040517f08c379a00000000000000000000000000000000000000000000000000000000081526004016113bc90614422565b60405180910390fd5b600073ffffffffffffffffffffffffffffffffffffffff168160020160009054906101000a900473ffffffffffffffffffffffffffffffffffffffff1673ffffffffffffffffffffffffffffffffffffffff16146114f35760008160020160009054906101000a900473ffffffffffffffffffffffffffffffffffffffff1673ffffffffffffffffffffffffffffffffffffffff16826001015460405161146b90614110565b60006040518083038185875af1925050503d80600081146114a8576040519150601f19603f3d011682016040523d82523d6000602084013e6114ad565b606091505b50509050806114f1576040517f08c379a00000000000000000000000000000000000000000000000000000000081526004016114e89061448e565b60405180910390fd5b505b348160010181905550338160020160006101000a81548173ffffffffffffffffffffffffffffffffffffffff021916908373ffffffffffffffffffffffffffffffffffffffff1602179055507f0fc69407039e8ba8cdd517e2a4cae9dd19697b0a500ff37a2425c59ebc649b3182346040516115709291906144ae565b60405180910390a150611581612929565b50565b61159661158f612542565b8383612a80565b5050565b600060095490506115ab3382612bef565b6115b58186612c0d565b60405180608001604052808581526020018481526020018360048111156115df576115de61390e565b5b81526020013373ffffffffffffffffffffffffffffffffffffffff16815250600a600083815260200190815260200160002060008201518160000190816116269190614683565b50602082015181600101908161163c9190614683565b5060408201518160020160006101000a81548160ff021916908360048111156116685761166761390e565b5b021790555060608201518160020160016101000a81548173ffffffffffffffffffffffffffffffffffffffff021916908373ffffffffffffffffffffffffffffffffffffffff160217905550905050600960008154809291906116ca90614784565b91905055507f0176f203df400d7bd5f1b1c9ef36c16709bf3b5d9fd35f000a6bae32393f66c38133604051611700929190614191565b60405180910390a15050505050565b61171a8484846108a9565b61172e611725612542565b85858585612c69565b50505050565b61173c612776565b6000600c600083815260200190815260200160002090508060040160149054906101000a900460ff166117a4576040517f08c379a000000000000000000000000000000000000000000000000000000000815260040161179b906142de565b60405180910390fd5b80600301544210156117eb576040517f08c379a00000000000000000000000000000000000000000000000000000000081526004016117e290614818565b60405180910390fd5b60008160040160146101000a81548160ff021916908315150217905550600073ffffffffffffffffffffffffffffffffffffffff168160020160009054906101000a900473ffffffffffffffffffffffffffffffffffffffff1673ffffffffffffffffffffffffffffffffffffffff16146119e65760008160040160009054906101000a900473ffffffffffffffffffffffffffffffffffffffff1673ffffffffffffffffffffffffffffffffffffffff1682600101546040516118ae90614110565b60006040518083038185875af1925050503d80600081146118eb576040519150601f19603f3d011682016040523d82523d6000602084013e6118f0565b606091505b5050905080611934576040517f08c379a000000000000000000000000000000000000000000000000000000000815260040161192b90614884565b60405180910390fd5b6119878260040160009054906101000a900473ffffffffffffffffffffffffffffffffffffffff168360020160009054906101000a900473ffffffffffffffffffffffffffffffffffffffff16856127bc565b7fc07789fac136048b605fef8e227ab89b2e33d8afc9ab4817d374197cd81443d6838360020160009054906101000a900473ffffffffffffffffffffffffffffffffffffffff166040516119dc929190614191565b60405180910390a1505b506119ef612929565b50565b6000600b600083815260200190815260200160002090508060010160149054906101000a900460ff16611a5a576040517f08c379a0000000000000000000000000000000000000000000000000000000008152600401611a51906148f0565b60405180910390fd5b3373ffffffffffffffffffffffffffffffffffffffff168160010160009054906101000a900473ffffffffffffffffffffffffffffffffffffffff1673ffffffffffffffffffffffffffffffffffffffff1614611aec576040517f08c379a0000000000000000000000000000000000000000000000000000000008152600401611ae39061495c565b60405180910390fd5b60008160010160146101000a81548160ff021916908315150217905550611b143033846127bc565b7f2c56893f6f6026d19bd17b7d05c9f15c522de1ae2b1c3a825f91a73c799321f282604051611b439190613add565b60405180910390a15050565b6060611b5a8261247d565b506000600660008481526020019081526020016000208054611b7b90613f9f565b80601f0160208091040260200160405190810160405280929190818152602001828054611ba790613f9f565b8015611bf45780601f10611bc957610100808354040283529160200191611bf4565b820191906000526020600020905b815481529060010190602001808311611bd757829003601f168201915b505050505090506000611c05612e1a565b90506000815103611c1a578192505050611c5d565b600082511115611c4f578082604051602001611c379291906149b8565b60405160208183030381529060405292505050611c5d565b611c5884612e31565b925050505b919050565b3373ffffffffffffffffffffffffffffffffffffffff16611c8284610e80565b73ffffffffffffffffffffffffffffffffffffffff1614611cd8576040517f08c379a0000000000000000000000000000000000000000000000000000000008152600401611ccf90614272565b60405180910390fd5b60008111611d1b576040517f08c379a0000000000000000000000000000000000000000000000000000000008152600401611d1290614a28565b60405180910390fd5b6040518060c0016040528083815260200160008152602001600073ffffffffffffffffffffffffffffffffffffffff1681526020018242611d5c9190614a48565b81526020013373ffffffffffffffffffffffffffffffffffffffff16815260200160011515815250600c6000858152602001908152602001600020600082015181600001556020820151816001015560408201518160020160006101000a81548173ffffffffffffffffffffffffffffffffffffffff021916908373ffffffffffffffffffffffffffffffffffffffff1602179055506060820151816003015560808201518160040160006101000a81548173ffffffffffffffffffffffffffffffffffffffff021916908373ffffffffffffffffffffffffffffffffffffffff16021790555060a08201518160040160146101000a81548160ff0219169083151502179055509050507fe00a2da3a0f34a566402a244ab7ec63f8ab7472591cb18edf3269aa00461a410838242611e949190614a48565b604051611ea29291906144ae565b60405180910390a1505050565b60095481565b3373ffffffffffffffffffffffffffffffffffffffff16611ed583610e80565b73ffffffffffffffffffffffffffffffffffffffff1614611f2b576040517f08c379a0000000000000000000000000000000000000000000000000000000008152600401611f2290614ac8565b60405180910390fd5b60008111611f6e576040517f08c379a0000000000000000000000000000000000000000000000000000000008152600401611f6590614b34565b60405180910390fd5b611f793330846127bc565b60405180606001604052808281526020013373ffffffffffffffffffffffffffffffffffffffff16815260200160011515815250600b60008481526020019081526020016000206000820151816000015560208201518160010160006101000a81548173ffffffffffffffffffffffffffffffffffffffff021916908373ffffffffffffffffffffffffffffffffffffffff16021790555060408201518160010160146101000a81548160ff0219169083151502179055509050507f27aebf2e0e5cf25f00bd3797d26b69f66ac7ccb85a55702906e672e9cb7d1c2582826040516120659291906144ae565b60405180910390a15050565b6000600560008473ffffffffffffffffffffffffffffffffffffffff1673ffffffffffffffffffffffffffffffffffffffff16815260200190815260200160002060008373ffffffffffffffffffffffffffffffffffffffff1673ffffffffffffffffffffffffffffffffffffffff16815260200190815260200160002060009054906101000a900460ff16905092915050565b61210d612776565b6000600d6000848152602001908152602001600020828154811061213457612133614b54565b5b906000526020600020906003020190508060020160009054906101000a900460ff16612195576040517f08c379a000000000000000000000000000000000000000000000000000000000815260040161218c90614bcf565b60405180910390fd5b3373ffffffffffffffffffffffffffffffffffffffff166121b584610e80565b73ffffffffffffffffffffffffffffffffffffffff161461220b576040517f08c379a000000000000000000000000000000000000000000000000000000000815260040161220290614272565b60405180910390fd5b60008160020160006101000a81548160ff02191690831515021790555060003373ffffffffffffffffffffffffffffffffffffffff16826001015460405161225290614110565b60006040518083038185875af1925050503d806000811461228f576040519150601f19603f3d011682016040523d82523d6000602084013e612294565b606091505b50509050806122d8576040517f08c379a00000000000000000000000000000000000000000000000000000000081526004016122cf90614c3b565b60405180910390fd5b612307338360000160009054906101000a900473ffffffffffffffffffffffffffffffffffffffff16866127bc565b5050612311612929565b5050565b61231d612933565b600073ffffffffffffffffffffffffffffffffffffffff168173ffffffffffffffffffffffffffffffffffffffff160361238f5760006040517f1e4fbdf700000000000000000000000000000000000000000000000000000000815260040161238691906137ee565b60405180910390fd5b612398816129ba565b50565b60007f80ac58cd000000000000000000000000000000000000000000000000000000007bffffffffffffffffffffffffffffffffffffffffffffffffffffffff1916827bffffffffffffffffffffffffffffffffffffffffffffffffffffffff1916148061246657507f5b5e139f000000000000000000000000000000000000000000000000000000007bffffffffffffffffffffffffffffffffffffffffffffffffffffffff1916827bffffffffffffffffffffffffffffffffffffffffffffffffffffffff1916145b80612476575061247582612e9a565b5b9050919050565b60008061248983612f04565b9050600073ffffffffffffffffffffffffffffffffffffffff168173ffffffffffffffffffffffffffffffffffffffff16036124fc57826040517f7e2732890000000000000000000000000000000000000000000000000000000081526004016124f39190613add565b60405180910390fd5b80915050919050565b60006004600083815260200190815260200160002060009054906101000a900473ffffffffffffffffffffffffffffffffffffffff169050919050565b600033905090565b6125578383836001612f41565b505050565b60008061256884612f04565b9050600073ffffffffffffffffffffffffffffffffffffffff168373ffffffffffffffffffffffffffffffffffffffff16146125aa576125a9818486613106565b5b600073ffffffffffffffffffffffffffffffffffffffff168173ffffffffffffffffffffffffffffffffffffffff161461263b576125ec600085600080612f41565b6001600360008373ffffffffffffffffffffffffffffffffffffffff1673ffffffffffffffffffffffffffffffffffffffff168152602001908152602001600020600082825403925050819055505b600073ffffffffffffffffffffffffffffffffffffffff168573ffffffffffffffffffffffffffffffffffffffff16146126be576001600360008773ffffffffffffffffffffffffffffffffffffffff1673ffffffffffffffffffffffffffffffffffffffff168152602001908152602001600020600082825401925050819055505b846002600086815260200190815260200160002060006101000a81548173ffffffffffffffffffffffffffffffffffffffff021916908373ffffffffffffffffffffffffffffffffffffffff160217905550838573ffffffffffffffffffffffffffffffffffffffff168273ffffffffffffffffffffffffffffffffffffffff167fddf252ad1be2c89b69c2b068fc378daa952ba7f163c4a11628f55a4df523b3ef60405160405180910390a4809150509392505050565b6002600754036127b2576040517f3ee5aeb500000000000000000000000000000000000000000000000000000000815260040160405180910390fd5b6002600781905550565b600073ffffffffffffffffffffffffffffffffffffffff168273ffffffffffffffffffffffffffffffffffffffff160361282e5760006040517f64a0ae9200000000000000000000000000000000000000000000000000000000815260040161282591906137ee565b60405180910390fd5b600061283c8383600061255c565b9050600073ffffffffffffffffffffffffffffffffffffffff168173ffffffffffffffffffffffffffffffffffffffff16036128af57816040517f7e2732890000000000000000000000000000000000000000000000000000000081526004016128a69190613add565b60405180910390fd5b8373ffffffffffffffffffffffffffffffffffffffff168173ffffffffffffffffffffffffffffffffffffffff1614612923578382826040517f64283d7b00000000000000000000000000000000000000000000000000000000815260040161291a93929190613fd0565b60405180910390fd5b50505050565b6001600781905550565b61293b612542565b73ffffffffffffffffffffffffffffffffffffffff166129596110bd565b73ffffffffffffffffffffffffffffffffffffffff16146129b85761297c612542565b6040517f118cdaa70000000000000000000000000000000000000000000000000000000081526004016129af91906137ee565b60405180910390fd5b565b6000600860009054906101000a900473ffffffffffffffffffffffffffffffffffffffff16905081600860006101000a81548173ffffffffffffffffffffffffffffffffffffffff021916908373ffffffffffffffffffffffffffffffffffffffff1602179055508173ffffffffffffffffffffffffffffffffffffffff168173ffffffffffffffffffffffffffffffffffffffff167f8be0079c531659141344cd1fd0a4f28419497f9722a3daafe3b4186f6b6457e060405160405180910390a35050565b600073ffffffffffffffffffffffffffffffffffffffff168273ffffffffffffffffffffffffffffffffffffffff1603612af157816040517f5b08ba18000000000000000000000000000000000000000000000000000000008152600401612ae891906137ee565b60405180910390fd5b80600560008573ffffffffffffffffffffffffffffffffffffffff1673ffffffffffffffffffffffffffffffffffffffff16815260200190815260200160002060008473ffffffffffffffffffffffffffffffffffffffff1673ffffffffffffffffffffffffffffffffffffffff16815260200190815260200160002060006101000a81548160ff0219169083151502179055508173ffffffffffffffffffffffffffffffffffffffff168373ffffffffffffffffffffffffffffffffffffffff167f17307eab39ab6107e8899845ad3d59bd9653f200f220920489ca2b5937696c3183604051612be2919061367d565b60405180910390a3505050565b612c098282604051806020016040528060008152506131ca565b5050565b80600660008481526020019081526020016000209081612c2d9190614683565b507ff8e1a15aba9398e019f0b49df1a4fde98ee17ae345cb5f6b5e2c27f5033e8ce782604051612c5d9190613add565b60405180910390a15050565b60008373ffffffffffffffffffffffffffffffffffffffff163b1115612e13578273ffffffffffffffffffffffffffffffffffffffff1663150b7a02868685856040518563ffffffff1660e01b8152600401612cc89493929190614cb0565b6020604051808303816000875af1925050508015612d0457506040513d601f19601f82011682018060405250810190612d019190614d11565b60015b612d88573d8060008114612d34576040519150601f19603f3d011682016040523d82523d6000602084013e612d39565b606091505b506000815103612d8057836040517f64a0ae92000000000000000000000000000000000000000000000000000000008152600401612d7791906137ee565b60405180910390fd5b805160208201fd5b63150b7a0260e01b7bffffffffffffffffffffffffffffffffffffffffffffffffffffffff1916817bffffffffffffffffffffffffffffffffffffffffffffffffffffffff191614612e1157836040517f64a0ae92000000000000000000000000000000000000000000000000000000008152600401612e0891906137ee565b60405180910390fd5b505b5050505050565b606060405180602001604052806000815250905090565b6060612e3c8261247d565b506000612e47612e1a565b90506000815111612e675760405180602001604052806000815250612e92565b80612e71846131ee565b604051602001612e829291906149b8565b6040516020818303038152906040525b915050919050565b60007f01ffc9a7000000000000000000000000000000000000000000000000000000007bffffffffffffffffffffffffffffffffffffffffffffffffffffffff1916827bffffffffffffffffffffffffffffffffffffffffffffffffffffffff1916149050919050565b60006002600083815260200190815260200160002060009054906101000a900473ffffffffffffffffffffffffffffffffffffffff169050919050565b8080612f7a5750600073ffffffffffffffffffffffffffffffffffffffff168273ffffffffffffffffffffffffffffffffffffffff1614155b156130ae576000612f8a8461247d565b9050600073ffffffffffffffffffffffffffffffffffffffff168373ffffffffffffffffffffffffffffffffffffffff1614158015612ff557508273ffffffffffffffffffffffffffffffffffffffff168173ffffffffffffffffffffffffffffffffffffffff1614155b801561300857506130068184612071565b155b1561304a57826040517fa9fbf51f00000000000000000000000000000000000000000000000000000000815260040161304191906137ee565b60405180910390fd5b81156130ac57838573ffffffffffffffffffffffffffffffffffffffff168273ffffffffffffffffffffffffffffffffffffffff167f8c5be1e5ebec7d5bd14f71427d1e84f3dd0314c0f7b2291e5b200ac8c7c3b92560405160405180910390a45b505b836004600085815260200190815260200160002060006101000a81548173ffffffffffffffffffffffffffffffffffffffff021916908373ffffffffffffffffffffffffffffffffffffffff16021790555050505050565b6131118383836132bc565b6131c557600073ffffffffffffffffffffffffffffffffffffffff168373ffffffffffffffffffffffffffffffffffffffff160361318657806040517f7e27328900000000000000000000000000000000000000000000000000000000815260040161317d9190613add565b60405180910390fd5b81816040517f177e802f0000000000000000000000000000000000000000000000000000000081526004016131bc929190614d3e565b60405180910390fd5b505050565b6131d4838361337d565b6131e96131df612542565b6000858585612c69565b505050565b6060600060016131fd84613476565b01905060008167ffffffffffffffff81111561321c5761321b613bae565b5b6040519080825280601f01601f19166020018201604052801561324e5781602001600182028036833780820191505090505b509050600082602083010190505b6001156132b1578080600190039150507f3031323334353637383961626364656600000000000000000000000000000000600a86061a8153600a85816132a5576132a4614d67565b5b0494506000850361325c575b819350505050919050565b60008073ffffffffffffffffffffffffffffffffffffffff168373ffffffffffffffffffffffffffffffffffffffff161415801561337457508273ffffffffffffffffffffffffffffffffffffffff168473ffffffffffffffffffffffffffffffffffffffff16148061333557506133348484612071565b5b8061337357508273ffffffffffffffffffffffffffffffffffffffff1661335b83612505565b73ffffffffffffffffffffffffffffffffffffffff16145b5b90509392505050565b600073ffffffffffffffffffffffffffffffffffffffff168273ffffffffffffffffffffffffffffffffffffffff16036133ef5760006040517f64a0ae920000000000000000000000000000000000000000000000000000000081526004016133e691906137ee565b60405180910390fd5b60006133fd8383600061255c565b9050600073ffffffffffffffffffffffffffffffffffffffff168173ffffffffffffffffffffffffffffffffffffffff16146134715760006040517f73c6ac6e00000000000000000000000000000000000000000000000000000000815260040161346891906137ee565b60405180910390fd5b505050565b600080600090507a184f03e93ff9f4daa797ed6e38ed64bf6a1f01000000000000000083106134d4577a184f03e93ff9f4daa797ed6e38ed64bf6a1f01000000000000000083816134ca576134c9614d67565b5b0492506040810190505b6d04ee2d6d415b85acef81000000008310613511576d04ee2d6d415b85acef8100000000838161350757613506614d67565b5b0492506020810190505b662386f26fc10000831061354057662386f26fc10000838161353657613535614d67565b5b0492506010810190505b6305f5e1008310613569576305f5e100838161355f5761355e614d67565b5b0492506008810190505b612710831061358e57612710838161358457613583614d67565b5b0492506004810190505b606483106135b157606483816135a7576135a6614d67565b5b0492506002810190505b600a83106135c0576001810190505b80915050919050565b6000604051905090565b600080fd5b600080fd5b60007fffffffff0000000000000000000000000000000000000000000000000000000082169050919050565b613612816135dd565b811461361d57600080fd5b50565b60008135905061362f81613609565b92915050565b60006020828403121561364b5761364a6135d3565b5b600061365984828501613620565b91505092915050565b60008115159050919050565b61367781613662565b82525050565b6000602082019050613692600083018461366e565b92915050565b600081519050919050565b600082825260208201905092915050565b60005b838110156136d25780820151818401526020810190506136b7565b60008484015250505050565b6000601f19601f8301169050919050565b60006136fa82613698565b61370481856136a3565b93506137148185602086016136b4565b61371d816136de565b840191505092915050565b6000602082019050818103600083015261374281846136ef565b905092915050565b6000819050919050565b61375d8161374a565b811461376857600080fd5b50565b60008135905061377a81613754565b92915050565b600060208284031215613796576137956135d3565b5b60006137a48482850161376b565b91505092915050565b600073ffffffffffffffffffffffffffffffffffffffff82169050919050565b60006137d8826137ad565b9050919050565b6137e8816137cd565b82525050565b600060208201905061380360008301846137df565b92915050565b613812816137cd565b811461381d57600080fd5b50565b60008135905061382f81613809565b92915050565b6000806040838503121561384c5761384b6135d3565b5b600061385a85828601613820565b925050602061386b8582860161376b565b9150509250929050565b60008060006060848603121561388e5761388d6135d3565b5b600061389c86828701613820565b93505060206138ad86828701613820565b92505060406138be8682870161376b565b9150509250925092565b6138d18161374a565b82525050565b60006060820190506138ec60008301866138c8565b6138f960208301856137df565b613906604083018461366e565b949350505050565b7f4e487b7100000000000000000000000000000000000000000000000000000000600052602160045260246000fd5b6005811061394e5761394d61390e565b5b50565b600081905061395f8261393d565b919050565b600061396f82613951565b9050919050565b61397f81613964565b82525050565b6000608082019050818103600083015261399f81876136ef565b905081810360208301526139b381866136ef565b90506139c26040830185613976565b6139cf60608301846137df565b95945050505050565b600080604083850312156139ef576139ee6135d3565b5b60006139fd8582860161376b565b9250506020613a0e8582860161376b565b9150509250929050565b6000606082019050613a2d60008301866137df565b613a3a60208301856138c8565b613a47604083018461366e565b949350505050565b600060c082019050613a6460008301896138c8565b613a7160208301886138c8565b613a7e60408301876137df565b613a8b60608301866138c8565b613a9860808301856137df565b613aa560a083018461366e565b979650505050505050565b600060208284031215613ac657613ac56135d3565b5b6000613ad484828501613820565b91505092915050565b6000602082019050613af260008301846138c8565b92915050565b60008060408385031215613b0f57613b0e6135d3565b5b6000613b1d8582860161376b565b9250506020613b2e85828601613820565b9150509250929050565b613b4181613662565b8114613b4c57600080fd5b50565b600081359050613b5e81613b38565b92915050565b60008060408385031215613b7b57613b7a6135d3565b5b6000613b8985828601613820565b9250506020613b9a85828601613b4f565b9150509250929050565b600080fd5b600080fd5b7f4e487b7100000000000000000000000000000000000000000000000000000000600052604160045260246000fd5b613be6826136de565b810181811067ffffffffffffffff82111715613c0557613c04613bae565b5b80604052505050565b6000613c186135c9565b9050613c248282613bdd565b919050565b600067ffffffffffffffff821115613c4457613c43613bae565b5b613c4d826136de565b9050602081019050919050565b82818337600083830152505050565b6000613c7c613c7784613c29565b613c0e565b905082815260208101848484011115613c9857613c97613ba9565b5b613ca3848285613c5a565b509392505050565b600082601f830112613cc057613cbf613ba4565b5b8135613cd0848260208601613c69565b91505092915050565b60058110613ce657600080fd5b50565b600081359050613cf881613cd9565b92915050565b60008060008060808587031215613d1857613d176135d3565b5b600085013567ffffffffffffffff811115613d3657613d356135d8565b5b613d4287828801613cab565b945050602085013567ffffffffffffffff811115613d6357613d626135d8565b5b613d6f87828801613cab565b935050604085013567ffffffffffffffff811115613d9057613d8f6135d8565b5b613d9c87828801613cab565b9250506060613dad87828801613ce9565b91505092959194509250565b600067ffffffffffffffff821115613dd457613dd3613bae565b5b613ddd826136de565b9050602081019050919050565b6000613dfd613df884613db9565b613c0e565b905082815260208101848484011115613e1957613e18613ba9565b5b613e24848285613c5a565b509392505050565b600082601f830112613e4157613e40613ba4565b5b8135613e51848260208601613dea565b91505092915050565b60008060008060808587031215613e7457613e736135d3565b5b6000613e8287828801613820565b9450506020613e9387828801613820565b9350506040613ea48782880161376b565b925050606085013567ffffffffffffffff811115613ec557613ec46135d8565b5b613ed187828801613e2c565b91505092959194509250565b600080600060608486031215613ef657613ef56135d3565b5b6000613f048682870161376b565b9350506020613f158682870161376b565b9250506040613f268682870161376b565b9150509250925092565b60008060408385031215613f4757613f466135d3565b5b6000613f5585828601613820565b9250506020613f6685828601613820565b9150509250929050565b7f4e487b7100000000000000000000000000000000000000000000000000000000600052602260045260246000fd5b60006002820490506001821680613fb757607f821691505b602082108103613fca57613fc9613f70565b5b50919050565b6000606082019050613fe560008301866137df565b613ff260208301856138c8565b613fff60408301846137df565b949350505050565b7f4e6f7420666f722073616c650000000000000000000000000000000000000000600082015250565b600061403d600c836136a3565b915061404882614007565b602082019050919050565b6000602082019050818103600083015261406c81614030565b9050919050565b7f496e636f72726563742070726963650000000000000000000000000000000000600082015250565b60006140a9600f836136a3565b91506140b482614073565b602082019050919050565b600060208201905081810360008301526140d88161409c565b9050919050565b600081905092915050565b50565b60006140fa6000836140df565b9150614105826140ea565b600082019050919050565b600061411b826140ed565b9150819050919050565b7f5061796d656e7420746f2073656c6c6572206661696c65640000000000000000600082015250565b600061415b6018836136a3565b915061416682614125565b602082019050919050565b6000602082019050818103600083015261418a8161414e565b9050919050565b60006040820190506141a660008301856138c8565b6141b360208301846137df565b9392505050565b7f4f776e65722063616e6e6f742072657175657374000000000000000000000000600082015250565b60006141f06014836136a3565b91506141fb826141ba565b602082019050919050565b6000602082019050818103600083015261421f816141e3565b9050919050565b7f4e6f74206f776e65720000000000000000000000000000000000000000000000600082015250565b600061425c6009836136a3565b915061426782614226565b602082019050919050565b6000602082019050818103600083015261428b8161424f565b9050919050565b7f41756374696f6e20696e61637469766500000000000000000000000000000000600082015250565b60006142c86010836136a3565b91506142d382614292565b602082019050919050565b600060208201905081810360008301526142f7816142bb565b9050919050565b7f41756374696f6e20656e64656400000000000000000000000000000000000000600082015250565b6000614334600d836136a3565b915061433f826142fe565b602082019050919050565b6000602082019050818103600083015261436381614327565b9050919050565b7f4f776e65722063616e6e6f742062696400000000000000000000000000000000600082015250565b60006143a06010836136a3565b91506143ab8261436a565b602082019050919050565b600060208201905081810360008301526143cf81614393565b9050919050565b7f42696420746f6f206c6f77000000000000000000000000000000000000000000600082015250565b600061440c600b836136a3565b9150614417826143d6565b602082019050919050565b6000602082019050818103600083015261443b816143ff565b9050919050565b7f526566756e64206661696c656400000000000000000000000000000000000000600082015250565b6000614478600d836136a3565b915061448382614442565b602082019050919050565b600060208201905081810360008301526144a78161446b565b9050919050565b60006040820190506144c360008301856138c8565b6144d060208301846138c8565b9392505050565b60008190508160005260206000209050919050565b60006020601f8301049050919050565b600082821b905092915050565b6000600883026145397fffffffffffffffffffffffffffffffffffffffffffffffffffffffffffffffff826144fc565b61454386836144fc565b95508019841693508086168417925050509392505050565b6000819050919050565b600061458061457b6145768461374a565b61455b565b61374a565b9050919050565b6000819050919050565b61459a83614565565b6145ae6145a682614587565b848454614509565b825550505050565b600090565b6145c36145b6565b6145ce818484614591565b505050565b5b818110156145f2576145e76000826145bb565b6001810190506145d4565b5050565b601f82111561463757614608816144d7565b614611846144ec565b81016020851015614620578190505b61463461462c856144ec565b8301826145d3565b50505b505050565b600082821c905092915050565b600061465a6000198460080261463c565b1980831691505092915050565b60006146738383614649565b9150826002028217905092915050565b61468c82613698565b67ffffffffffffffff8111156146a5576146a4613bae565b5b6146af8254613f9f565b6146ba8282856145f6565b600060209050601f8311600181146146ed57600084156146db578287015190505b6146e58582614667565b86555061474d565b601f1984166146fb866144d7565b60005b82811015614723578489015182556001820191506020850194506020810190506146fe565b86831015614740578489015161473c601f891682614649565b8355505b6001600288020188555050505b505050505050565b7f4e487b7100000000000000000000000000000000000000000000000000000000600052601160045260246000fd5b600061478f8261374a565b91507fffffffffffffffffffffffffffffffffffffffffffffffffffffffffffffffff82036147c1576147c0614755565b5b600182019050919050565b7f41756374696f6e206e6f7420656e646564000000000000000000000000000000600082015250565b60006148026011836136a3565b915061480d826147cc565b602082019050919050565b60006020820190508181036000830152614831816147f5565b9050919050565b7f41756374696f6e207061796f7574206661696c65640000000000000000000000600082015250565b600061486e6015836136a3565b915061487982614838565b602082019050919050565b6000602082019050818103600083015261489d81614861565b9050919050565b7f4e6f74206c697374656400000000000000000000000000000000000000000000600082015250565b60006148da600a836136a3565b91506148e5826148a4565b602082019050919050565b60006020820190508181036000830152614909816148cd565b9050919050565b7f4e6f742073656c6c657200000000000000000000000000000000000000000000600082015250565b6000614946600a836136a3565b915061495182614910565b602082019050919050565b6000602082019050818103600083015261497581614939565b9050919050565b600081905092915050565b600061499282613698565b61499c818561497c565b93506149ac8185602086016136b4565b80840191505092915050565b60006149c48285614987565b91506149d08284614987565b91508190509392505050565b7f496e76616c6964206475726174696f6e00000000000000000000000000000000600082015250565b6000614a126010836136a3565b9150614a1d826149dc565b602082019050919050565b60006020820190508181036000830152614a4181614a05565b9050919050565b6000614a538261374a565b9150614a5e8361374a565b9250828201905080821115614a7657614a75614755565b5b92915050565b7f4e6f74204e4654206f776e657200000000000000000000000000000000000000600082015250565b6000614ab2600d836136a3565b9150614abd82614a7c565b602082019050919050565b60006020820190508181036000830152614ae181614aa5565b9050919050565b7f5072696365206d757374206265203e2030000000000000000000000000000000600082015250565b6000614b1e6011836136a3565b9150614b2982614ae8565b602082019050919050565b60006020820190508181036000830152614b4d81614b11565b9050919050565b7f4e487b7100000000000000000000000000000000000000000000000000000000600052603260045260246000fd5b7f5265717565737420696e61637469766500000000000000000000000000000000600082015250565b6000614bb96010836136a3565b9150614bc482614b83565b602082019050919050565b60006020820190508181036000830152614be881614bac565b9050919050565b7f5061796d656e74206661696c6564000000000000000000000000000000000000600082015250565b6000614c25600e836136a3565b9150614c3082614bef565b602082019050919050565b60006020820190508181036000830152614c5481614c18565b9050919050565b600081519050919050565b600082825260208201905092915050565b6000614c8282614c5b565b614c8c8185614c66565b9350614c9c8185602086016136b4565b614ca5816136de565b840191505092915050565b6000608082019050614cc560008301876137df565b614cd260208301866137df565b614cdf60408301856138c8565b8181036060830152614cf18184614c77565b905095945050505050565b600081519050614d0b81613609565b92915050565b600060208284031215614d2757614d266135d3565b5b6000614d3584828501614cfc565b91505092915050565b6000604082019050614d5360008301856137df565b614d6060208301846138c8565b9392505050565b7f4e487b7100000000000000000000000000000000000000000000000000000000600052601260045260246000fdfea2646970667358221220f570992f6b66653957af685c69e269c3a408632363215394588c3b7a5caa059964736f6c634300081c0033",
  "linkReferences": {},
  "deployedLinkReferences": {}
}